:1000000012C021C020C01FC01EC01DC04BC01BC0DD
:100010005EC019C018C017C016C015C09BC013C061
:1000200012C011C010C011241FBECFE5D4E0DEBF46
:10003000CDBF20E0A0E6B0E001C01D92A436B2071B
:10004000E1F7ACD023C1DCCF809902C080E001C0D1
:1000500081E081998E5F82998C5F8330A1F028F4D2
:10006000813049F0823059F008958530A1F078F060
:100070008630A1F0089581E080936000089583E0C8
:1000800080936000089582E080936000089585E089
:1000900080936000089510926000089584E080933A
:1000A000600008951F920F920FB60F9211248F9344
:1000B00088B38D7F88BB88B3877F88BB88B38B7FED
:1000C00088BB8F910F900FBE0F901F9018951F92B5
:1000D0000F920FB60F9211248F939F93809162001D
:1000E000909163009BBD8ABD1DBC1CBC80916200C9
:1000F0009091630004973CF1809160008230A1F000
:1001000028F4882349F0813059F01DC08430A1F0D3
:1001100078F08530A9F017C088B3826088BB13C01F
:1001200088B3826088BB0FC088B3846088BB0BC073
:1001300088B3846088BB07C088B3886088BB03C06D
:1001400088B3886088BB9F918F910F900FBE0F90EE
:100150001F9018951F920F920FB60F9211242F9394
:100160008F939F9384B195B19695879590936300F3
:1001700080936200863F914034F085EF91E0909348
:1001800063008093620086B1806486B99F918F91ED
:100190002F910F900FBE0F901F90189583EF91E055
:1001A00097BD86BD1BBC1ABC82E08FBD89E18EBDA8
:1001B00084E189BF8EE087BB80EE81BB80E487B994
:1001C0008FEC86B97894F8943FDF8091600090912D
:1001D0006100891709F458C08093610088B38D7F4E
:1001E00088BB88B3877F88BB88B38B7F88BB8091AF
:1001F0006000823001F128F4882349F0813089F0D1
:1002000041C0843061F108F1853099F13BC082B37F
:10021000806482BB82B38F7D82BB82B38F7782BBC7
:1002200031C082B3806882BB82B38F7B82BB82B3D2
:100230008F7D82BB27C082B3806882BB82B38F7BF5
:1002400082BB82B38F7D82BB1DC082B3806282BBC2
:1002500082B38F7B82BB82B38F7782BB13C082B3A2
:10026000806282BB82B38F7B82BB82B38F7782BB7B
:1002700009C082B3806482BB82B38F7D82BB82B3AC
:100280008F7782BB1DBC1CBC78949DCFF894FFCFA8
:00000001FF
