:1000000019C028C027C086C025C024C023C022C074
:1000100021C020C025C01EC01DC01CC0C1C01AC048
:1000200019C018C017C0E4C0F0C0FCC008C114C19A
:1000300020C12CC111241FBECFE5D4E0DEBFCDBF4F
:1000400020E0A0E6B0E001C01D92A538B207E1F7BC
:1000500036D165C1D5CF80E187BB84EC8DB90895D9
:100060001F920F920FB60F9211242F933F938F93ED
:100070009F93EF93FF93E0916400F0916500E9593D
:10008000FF4F80818FB910926100109260008091C3
:100090006400909165008E3091052CF42FB1FC0125
:1000A000EC58FF4F20838E30910589F42FB1FC016D
:1000B000EC58FF4F208321E030E030936300209321
:1000C000620022E030E030936100209360000196EE
:1000D0009093650080936400FF91EF919F918F91C1
:1000E0003F912F910F900FBE0F901F901895809108
:1000F00067008FB981E090E0909365008093640081
:1001000008958BE783BD14BC8AE085BD89B78068FC
:1001100089BF08951F920F920FB60F9211242F934B
:100120003F934F935F936F937F938F939F93AF937F
:10013000BF93EF93FF9380916000909161008230B4
:1001400091052CF40196909361008093600080915A
:10015000600090916100029709F4C9DFFF91EF916F
:10016000BF91AF919F918F917F916F915F914F91CF
:100170003F912F910F900FBE0F901F90189580E424
:1001800087B98FE886B90895109284001092830091
:1001900080E487B986B1806486B9109266000895BC
:1001A0001F920F920FB60F9211242F933F938F93AC
:1001B0009F93EF93FF93E0918300F0918400EE0F03
:1001C000FF1FE959FF4F2081318184B195B1820F22
:1001D000931F9183808380E487B9E0918300F0913D
:1001E0008400E730F10508F059C0ED5EFF4F099437
:1001F00081E090E0909384008093830087B18160D8
:1002000087B986B1806486B94FC082E090E0909350
:1002100084008093830087B1826087B986B180644F
:1002200086B942C083E090E090938400809383007D
:1002300087B1836087B986B1806486B935C084E0B0
:1002400090E0909384008093830087B1846087B9A5
:1002500086B1806486B928C085E090E090938400E0
:100260008093830087B1866087B986B1806486B940
:100270001BC086E090E0909384008093830087B158
:10028000876087B986B1806486B90EC010928400F9
:100290001092830081E08093660006C01092840073
:1002A0001092830080E487B9FF91EF919F918F9125
:1002B0003F912F910F900FBE0F901F9018955FDF09
:1002C000CADE1FDF78941092610010926000809166
:1002D0006200909163000197D1F710926300109231
:1002E0006200E7E6F0E0118210821382128215822A
:1002F000148217821682118610861386128615863E
:100300001486C0E0D0E006C03FDF809166008823FD
:10031000E1F32196C233D105BCF3E9DED8CFF894DE
:02032000FFCF0D
:00000001FF
