S011000041717569736963616F2E7372656374
S11300001AC034C04AC4E4C231C030C02FC02EC0AC
S11300102DC02CC044C361C2A3C243C2A2C326C024
S113002025C024C023C0C5C3D1C3DDC3E9C3F5C300
S113003001C40DC419C411241FBECFE5D4E0DEBF32
S1130040CDBF10E0A0E6B0E0E0E2FCE002C0059025
S11300500D92A636B107D9F723E0A6E6B0E001C0B9
S11300601D92AB33B207E1F732D4D8C5C9CF92B3EE
S1130070906192BB8CB98AB180628AB90895AC014F
S113008020E030E080E090E012C0BC0164277527D6
S113009060FF07C09695879561E0862760EA9627FA
S11300A002C096958795569547952F5F3F4F283008
S11300B0310558F30895CF93DF939C012627C92F68
S11300C0DD27C9019927DBDF8C279D27DF91CF919D
S11300D00895EF92FF920F931F93CF93DF937C01C8
S11300E08B01C0E0D0E08FEF9FEF06C0F701EC0F6B
S11300F0FD1F6081E0DF2196C017D107B8F3DF91BF
S1130100CF911F910F91FF90EF900895EBE0F1E0F4
S1130110108211820895CF93DF9320910B01211156
S11301204FC020910D012093110220E1209312026F
S11301309093130280931402709315026093160235
S1130140862F880F8093170280E090E0C7E0D0E00C
S113015011C0FC01EE0FFF1FE40FF51F2181DE012A
S1130160AF5EBD4F2C932081FE01EE5EFD4F2083D8
S1130170229601968617970760F3BE0181E192E00B
S1130180A8DFEBE0F1E0DE01AF5EBD4F8C93DE0152
S1130190AE5EBD4F9C932296D683C58381E0808357
S11301A080E18093100388E090E09483838381E06E
S11301B090E090931A03809319038091110257DF02
S11301C0DF91CF9108950F931F93CF93DF93EBE0CB
S11301D0F1E082E0818303811481E8012297BE016A
S11301E082E191E076DFAC015527C55FDE4F2F81B8
S11301F030E04217530709F03FC1292F30E0F801DE
S1130200E65FFE4F878190E02817390709F034C173
S113021080911003813009F04AC0EBE0F1E097814E
S11302208281981329C180911301813009F024C17E
S11302308091140190E0055011098017910709F08D
S11302401BC140E050E021E030E063E070E025C0F5
S1130250FB01E55FFE4F878190E082239323892B86
S113026049F0E0911303F0911403E40FF51F81E0CA
S1130270808307C0E0911303F0911403E40FF51F8A
S11302801082220F331F211581E0380721F46F5F9C
S11302907F4F21E030E04F5F5F4F809115039091D5
S11302A0160348175907A0F210920C01E5C08330D9
S11302B009F044C0EBE0F1E0978182819813DCC03F
S11302C080911301833009F0D7C02091140130E0EC
S11302D08091150390911603880F991F28173907E9
S11302E009F0CAC020E030E043E050E01DC0E091D6
S11302F01103F0911203C901880F991FE80FF91F28
S1130300DA01A45FBE4F17966C91DA01A55FBE4F68
S113031017968C9190E0982F8827862B9183808361
S11303204E5F5F4F2F5F3F4F8091150390911603EF
S113033028173907E0F210920C019EC0853031F580
S1130340EBE0F1E097818281981396C080911301CC
S1130350853009F091C09091140180911302981393
S11303608BC09091150180911402981385C09091CF
S113037016018091150298137FC090911701809106
S11303801602981379C010920C0176C0863031F5AC
S1130390EBE0F1E09781828198136EC080911301A4
S11303A0863009F069C0909114018091130298136A
S11303B063C0909115018091140298135DC09091CF
S11303C0160180911502981357C0909117018091DE
S11303D01602981351C010920C014EC08F3031F5A3
S11303E0EBE0F1E097818281981346C0809113017C
S11303F08F3009F041C09091140180911302981339
S11304003BC09091150180911402981335C09091CE
S113041016018091150298132FC0909117018091B5
S11304201602981329C010920C0126C0803121F5C0
S1130430EBE0F1E09781828198131EC08091130153
S11304408031D1F49091140180911302981314C057
S1130450909115018091140298130EC09091160189
S113046080911502981308C090911701809116028B
S1130470981302C010920C01DF91CF911F910F913C
S11304800895EBE0F1E084E0808381E081830895C6
S11304908CE783BD14BC8DE085BD89B7806889BFB6
S11304A008951F920F920FB60F9211248F931092FA
S11304B061001092600082E080930B0182B38F7E12
S11304C082BB8AB18F7B8AB98AB180688AB98F91DD
S11304D00F900FBE0F901F9018951F920F920FB69A
S11304E00F9211242F933F938F939F93EF93FF9336
S11304F080910B01823049F5209117033091180344
S11305008CB1F901E55FFE4F878380910E019091D4
S11305100F0101972817390761F489EE93E090934E
S113052061008093600083E080930B018AB18F7730
S11305308AB980911703909118038F3F910528F48D
S113054001969093180380931703FF91EF919F9165
S11305508F913F912F910F900FBE0F901F90189580
S11305601F920F920FB60F9211242F933F938F93E4
S11305709F93EF93FF938091190390911A03209115
S11305801001309111018217930758F0109218034B
S1130590109217038AB18F7D8AB98AB180648AB9AF
S11305A00CC0FC01EF5EFD4F80818CB9E9E1F3E002
S11305B080819181019691838083FF91EF919F9136
S11305C08F913F912F910F900FBE0F901F90189510
S11305D01F920F920FB60F9211242F933F934F93B4
S11305E05F936F937F938F939F93AF93BF93EF9397
S11305F0FF938091600090916100883E934051F494
S113060040DF8091600090916100019690936100B9
S1130610809360008091600090916100883E23E0A7
S1130620920728F401969093610080936000809172
S1130630640090916500883823E1920730F40196B4
S1130640909365008093640006C080E69AEE9093D0
S1130650630080936200FF91EF91BF91AF919F91EE
S11306608F917F916F915F914F913F912F910F9057
S11306700FBE0F901F9018958AB188618AB980B512
S11306808E6880BD83E389B910BC81B3806181BB6E
S1130690089587B38C6287BB87ED8DB908951F9247
S11306A00F920FB60F9211242F938F939F93EF9372
S11306B0FF9380916600909167008E3091058CF4D1
S11306C02FB1FC01E65EFC4F20838AE68A95F1F7A0
S11306D000C0E0916600F0916700E759FF4F808108
S11306E08FB980916600909167008E30910541F436
S11306F02FB1FC01E65EFC4F208388B3846088BB85
S113070080916600909167000196909367008093B2
S11307106600FF91EF919F918F912F910F900FBEE3
S11307200F901F90189588B38B7F88BB80916900C8
S11307308FB981E090E090936700809366000895FC
S113074080E487B98FE886B9089510923A0310922D
S1130750390380E487B986B1806486B91092680051
S113076008951F920F920FB60F9211242F933F9367
S11307708F939F93EF93FF93E0913903F0913A03A2
S1130780EE0FFF1FE75DFC4F2081318184B195B1ED
S1130790820F931F9183808380E487B9E0913903AA
S11307A0F0913A03E830F10508F066C0ED5EFF4FC2
S11307B0099481E090E090933A038093390387B1E0
S11307C0816087B986B1806486B95CC082E090E0BC
S11307D090933A038093390387B1826087B986B1D5
S11307E0806486B94FC083E090E090933A0380938D
S11307F0390387B1836087B986B1806486B942C002
S113080084E090E090933A038093390387B1846045
S113081087B986B1806486B935C085E090E090934D
S11308203A038093390387B1856087B986B18064C0
S113083086B928C086E090E090933A038093390308
S113084087B1866087B986B1806486B91BC087E0AA
S113085090E090933A038093390387B1876087B916
S113086086B1806486B90EC010923A03109239039F
S113087081E08093680006C010923A031092390315
S113088080E487B9FF91EF919F918F913F912F91D0
S11308900F900FBE0F901F9018951F920F920FB6D6
S11308A00F9211248F939F9380916400909165001F
S11308B0909363008093620010926500109264002C
S11308C09F918F910F900FBE0F901F901895D4DEBB
S11308D037DF1CDCDDDDDDDE87B3816087BB82B3FF
S11308E0816082BB85B78C6085BF8BB780688BBF06
S11308F0789400E010E0C0E080910B01811111C1F7
S1130900C111FBC010DF2FEF30E742E0215030402F
S11309104040E1F700C00000E9E2F3E011821082F8
S1130920138212821582148217821682118610860F
S1130930138612861586148617861686C0E0D0E0C4
S113094006C003DF809168008823E1F32196C13358
S1130950D105BCF3CBE1D3E08A819B81EFE7F0E0E2
S11309609183808328813981A901481B590B5383C2
S11309704283A9E2B3E01C968D919C911D97AC0132
S1130980421B530B558344831E962D913C911F9714
S1130990A901481B590B578346838D919C9111974C
S11309A0AC01421B530B5187408712962D913C9109
S11309B01397A901481B590B5387428714968D91AD
S11309C09C911597AC01421B530B5587448716968F
S11309D02D913C911797A901481B590B57874687BE
S11309E018968D919C911997AC01421B530B518B16
S11309F0408B1A96ED90FC901B979701281B390B9E
S1130A00338B228B8A859B85958B848BCC84DD8468
S1130A10D78AC68A0884D985C02DD18FC08F2091EA
S1130A2062003091630040E050E064E479ED80E0DE
S1130A3090E0AAD02E3581E0380720F430939A0054
S1130A402093990080911F0390912003833F28E015
S1130A50920728F410929C0010929B000FC09C01F6
S1130A60225F3840A5E8BAE5ABD0880F892F881FEC
S1130A70990B919590939C0080939B008091210306
S1130A809091220390939E0080939D003BE0C316B7
S1130A90D10408F076019701A1E3B0E091D022E3FC
S1130AA030E040E050E070D0AFE7B0E091963C9386
S1130AB02E9390970F5F1F4F97961C930E939697C4
S1130AC0E7E7F0E031832083D383C2835A968D9184
S1130AD09C915B97958384835C968D919C915D97A3
S1130AE09783868381E080930D01AD0164E170E01A
S1130AF080E090E010DBC1E014C04FEF51EE84E0E1
S1130B00415050408040E1F700C0000082E08093F3
S1130B100D0147E750E064E070E080E090E0FBDA2C
S1130B20C0E080910B018330C9F44DDB80910C014E
S1130B30811104C088B3816088BB0FC088B38E7FE5
S1130B4088BB9FEF21EE34E0915020403040E1F724
S1130B5000C0000088B3816088BBD8DA80910B01A3
S1130B60843009F0C9CED2DA88B38E7F88BB4FEFC8
S1130B7051EE84E0415050408040E1F700C0000055
S1130B8088B3816088BBB8CE052E97FB16F4009419
S1130B900FD057FD05D020D007FC02D046F408C082
S1130BA050954095309521953F4F4F4F5F4F089595
S1130BB090958095709561957F4F8F4F9F4F0895C5
S1130BC0A29FB001B39FC001A39F01D0B29F700D3B
S1130BD0811D1124911D0895A1E21A2EAA1BBB1B8D
S1130BE0FD010DC0AA1FBB1FEE1FFF1FA217B307F5
S1130BF0E407F50720F0A21BB30BE40BF50B661F0B
S1130C00771F881F991F1A9469F7609570958095CE
S1130C1090959B01AC01BD01CF010895F894FFCFDD
S1090C20E903E8FDE8FD14
S9030000FC
