:1000000012C02CC02BC0E5C229C028C027C026C002
:1000100025C024C034C351C29DC23DC21FC01EC0F2
:100020001DC01CC01BC011241FBECFE5D4E0DEBF25
:10003000CDBF10E0A0E6B0E0E4EEF7E002C005902E
:100040000D92A236B107D9F723E0A2E6B0E001C0D5
:100050001D92AA34B207E1F784D3C2C3D1CF92B3C1
:10006000906192BB8CB98AB180628AB90895AC0163
:1000700020E030E080E090E012C0BC0164277527EA
:1000800060FF07C09695879561E0862760EA96270E
:1000900002C096958795569547952F5F3F4F28301C
:1000A000310558F30895CF93DF939C012627C92F7C
:1000B000DD27C9019927DBDF8C279D27DF91CF91B1
:1000C0000895EF92FF920F931F93CF93DF937C01DC
:1000D0008B01C0E0D0E08FEF9FEF06C0F701EC0F7F
:1000E000FD1F6081E0DF2196C017D107B8F3DF91D3
:1000F000CF911F910F91FF90EF900895E6EDF0E002
:1001000081E08283108211820895CF93DF93209142
:10011000D60021114FC02091D8002093DC0120E1AE
:100120002093DD019093DE018093DF017093E00165
:100130006093E101862F880F8093E20180E090E0D8
:10014000C7E0D0E011C0FC01EE0FFF1FE40FF51F68
:100150002181DE01A452BE4F2C932081FE01E35287
:10016000FE4F2083229601968617970760F3BE0103
:100170008CED91E0A6DFE6EDF0E0DE01A452BE4F8B
:100180008C93DE01A352BE4F9C932296D683C583E7
:1001900081E0808380E18093DB0288E090E09483BB
:1001A000838381E090E09093E5028093E402809164
:1001B000DC0155DFDF91CF9108950F931F93CF930B
:1001C000DF93E6EDF0E082E0818303811481E801B2
:1001D0002297BE018DED90E074DFAC015527CA5225
:1001E000DF4F2F8130E04217530709F03FC1292F1D
:1001F00030E0F801EB52FF4F878190E02817390774
:1002000009F034C18091DB02813009F04AC0E6ED8B
:10021000F0E097818281981329C18091DE008130BE
:1002200009F024C18091DF0090E00550110980178A
:10023000910709F01BC140E050E021E030E063E0AD
:1002400070E025C0FB01EA52FF4F878190E08223D6
:100250009323892B49F0E091DE02F091DF02E40F55
:10026000F51F81E0808307C0E091DE02F091DF029C
:10027000E40FF51F1082220F331F211581E038078C
:1002800021F46F5F7F4F21E030E04F5F5F4F80913F
:10029000E0029091E10248175907A0F21092D700AE
:1002A000E5C0833009F044C0E6EDF0E0978182813B
:1002B0009813DCC08091DE00833009F0D7C0209114
:1002C000DF0030E08091E0029091E102880F991FF9
:1002D0002817390709F0CAC020E030E043E050E0B9
:1002E0001DC0E091DC02F091DD02C901880F991F69
:1002F000E80FF91FDA01A952BF4F17966C91DA0186
:10030000AA52BF4F17968C9190E0982F8827862B82
:10031000918380834E5F5F4F2F5F3F4F8091E0025C
:100320009091E10228173907E0F21092D7009EC0A1
:10033000853031F5E6EDF0E097818281981396C023
:100340008091DE00853009F091C09091DF008091AE
:10035000DE0198138BC09091E0008091DF0198132B
:1003600085C09091E1008091E00198137FC0909149
:10037000E2008091E101981379C01092D70076C015
:10038000863031F5E6EDF0E09781828198136EC0FA
:100390008091DE00863009F069C09091DF00809185
:1003A000DE01981363C09091E0008091DF01981303
:1003B0005DC09091E1008091E001981357C0909149
:1003C000E2008091E101981351C01092D7004EC015
:1003D0008F3031F5E6EDF0E097818281981346C0C9
:1003E0008091DE008F3009F041C09091DF00809154
:1003F000DE0198133BC09091E0008091DF019813DB
:1004000035C09091E1008091E00198132FC0909148
:10041000E2008091E101981329C01092D70026C014
:10042000803121F5E6EDF0E09781828198131EC0BE
:100430008091DE008031D1F49091DF008091DE0167
:10044000981314C09091E0008091DF0198130EC0C2
:100450009091E1008091E001981308C09091E20032
:100460008091E101981302C01092D700DF91CF91E3
:100470001F910F910895E6EDF0E084E0808381E024
:10048000818308958CE783BD14BC8DE085BD89B759
:10049000806889BF08951F920F920FB60F921124A2
:1004A0008F9382B38F7E82BB8AB18F7B8AB98F9103
:1004B0000F900FBE0F901F9018951F920F920FB6BE
:1004C0000F9211242F933F934F935F936F937F93DA
:1004D0008F939F93AF93BF93EF93FF938091D60039
:1004E000823039F52091E2023091E3028CB1F901BA
:1004F000EA52FF4F87838091D9009091DA000197EB
:100500002817390751F489EE93E0909361008093A6
:10051000600083E08093D60050DE8091E2029091EB
:10052000E3028F3F910528F401969093E3028093B4
:10053000E202FF91EF91BF91AF919F918F917F91D7
:100540006F915F914F913F912F910F900FBE0F9040
:100550001F9018951F920F920FB60F9211242F9390
:100560003F938F939F93EF93FF938091E402909139
:10057000E5022091DB003091DC008217930790F0B8
:100580001092E3021092E202109261001092600059
:1005900082E08093D6008AB18F7D8AB98AB1806467
:1005A0008AB90CC0FC01E452FE4F80818CB9E4EEA4
:1005B000F2E080819181019691838083FF91EF9198
:1005C0009F918F913F912F910F900FBE0F901F9091
:1005D00018951F920F920FB60F9211242F933F93ED
:1005E0004F935F936F937F938F939F93AF93BF933B
:1005F000EF93FF938091600090916100883E93405B
:1006000051F439DF809160009091610001969093E0
:100610006100809360008091600090916100883E4D
:1006200023E0920728F40196909361008093600084
:10063000FF91EF91BF91AF919F918F917F916F91BA
:100640005F914F913F912F910F900FBE0F901F9090
:1006500018958AB188618AB980B58E6880BD83E3B8
:1006600089B910BC8AB180688AB981B3806181BBC5
:10067000089587B38C6287BB87ED8DB908951F926B
:100680000F920FB60F9211242F938F939F93EF9396
:10069000FF9380916200909163008E3091058CF4FD
:1006A0002FB1FC01EB51FD4F20838AE68A95F1F7CB
:1006B00000C0E0916200F0916300EC59FF4F80812F
:1006C0008FB980916200909163008E30910541F462
:1006D0002FB1FC01EB51FD4F208388B3846088BBB0
:1006E00080916200909163000196909363008093E3
:1006F0006200FF91EF919F918F912F910F900FBE0C
:100700000F901F90189588B38B7F88BB80916400F1
:100710008FB981E090E09093630080936200089528
:1007200020E030E01AC088B3816088BB4FEF80E7DB
:1007300092E0415080409040E1F700C0000088B353
:100740008E7F88BB4FEF80E792E041508040904021
:10075000E1F700C000002F5F3F4F2A3031051CF346
:10076000089577DFCBDC8EDE84DF87B3816087BBC3
:1007700082B3816082BB78948091D600811111C0D0
:10078000C2DF2FEF89E698E1215080409040E1F7E9
:1007900000C0000046EE52E067E070E080E090E0CC
:1007A000B4DC8091D6008330A1F48091D700811110
:1007B0000FC088B3816088BB2FEF84E39CE0215099
:1007C00080409040E1F700C0000088B38E7F88BB76
:1007D00095DC8091D600843079F690DCA1DFCCCF17
:0407E000F894FFCFBB
:0207E400E90327
:00000001FF
