:100000000C9434000C945F010C9474010C94510016
:100010000C9451000C9451000C9451000C9451001C
:100020000C9451000C9451000C9451000C9451000C
:100030000C9451000C9451000C9451000C945100FC
:100040000C9483010C9451000C9451000C945100B9
:100050000C9451000C9451000C9451000C945100DC
:100060000C9451000C94510011241FBECFEFD8E026
:10007000DEBFCDBF12E0A0E0B1E0E8E5F7E002C0EE
:1000800005900D92AA3DB107D9F723E0AAEDB2E0A1
:1000900001C01D92A230B207E1F70E9425030C9423
:1000A000AA030C9400001092B90086E48093B80073
:1000B00084E08093BC00089584EA8093BC00ECEB5C
:1000C000F0E080818823ECF7089584E98093BC00F8
:1000D0008FE891E00197F1F700C000000895809348
:1000E000BB0084E88093BC00ECEBF0E080818823C7
:1000F000ECF7089520E4829FC00111248468809366
:10010000BC00ECEBF0E080818823ECF78091BB0031
:10011000089595E89A95F1F700005E9884FF02C073
:10012000589A01C0589885FF02C0599A01C0599841
:1001300086FF02C05D9A01C05D98882314F45C9A22
:1001400001C05C985F9A9AE19A95F1F700C05F98B8
:1001500080FF02C0589A01C0589881FF02C0599A86
:1001600001C0599882FF02C05D9A01C05D9883FF6B
:1001700002C05C9A01C05C985F9A8AE18A95F1F7A7
:1001800000C05F98089595E89A95F1F700005E9A8F
:1001900084FF02C0589A01C0589885FF02C0599A3E
:1001A00001C0599886FF02C05D9A01C05D988823FE
:1001B00014F45C9A01C05C985F9A9AE19A95F1F701
:1001C00000C05F9880FF02C0589A01C0589881FF14
:1001D00002C0599A01C0599882FF02C05D9A01C0BD
:1001E0005D9883FF02C05C9A01C05C985F9A8AE1C7
:1001F0008A95F1F700C05F9808950F931F93CF93EE
:10020000DF93FC018081882369F08F01EF01219643
:1002100007511C4F0E94C3008991882319F0C01711
:10022000D107C1F7DF91CF911F910F910895EF9200
:10023000FF920F931F93CF93DF93CDB7DEB727972E
:100240000FB6F894DEBF0FBECDBF87E0E7EEF1E05A
:10025000DE01119601900D928A95E1F78FEF9CE7F0
:100260000197F1F700C00000509A519A559A549A9C
:10027000579A569A5F9A5E985F988E010F5F1F4F4C
:100280007E0198E0E90EF11CF80181918F010E9436
:1002900089008FEF9CE70197F1F700C000000E1571
:1002A0001F0591F727960FB6F894DEBF0FBECDBF9E
:1002B000DF91CF911F910F91FF90EF9008951F92C2
:1002C0000F920FB60F9211248F93189904C081E0FA
:1002D0008093DA0203C081E08093E8028F910F904F
:1002E0000FBE0F901F9018951F920F920FB60F928E
:1002F00011248F9381E08093DB028F910F900FBECA
:100300000F901F9018951F920F920FB60F92112405
:100310002F938F939F9388EF86BD8091E9029091F0
:10032000EA0201969093EA028093E90281159440D3
:1003300068F08091E6029091E70201969093E702BF
:100340008093E6021092EA021092E9028091EB0299
:100350009091EC0201968636910528F49093EC0278
:100360008093EB0204C01092EC021092EB029F917A
:100370008F912F910F900FBE0F901F901895CF93D4
:10038000DF93CDB7DEB729970FB6F894DEBF0FBE67
:10039000CDBF8AE38B838E8319868FED92E00E9416
:1003A0007703EFEDF2E08281982F92959F70905D38
:1003B00099838F70805D8A838181982F92959F7039
:1003C000905D9C838F70805D8D838081982F929546
:1003D0009F70905D9F838F70805D888780E80E940A
:1003E00089008EEE91E00E94FD00CE0101960E94F0
:1003F000FD0085E092E00E94FD0080EC0E948900F3
:1004000086EF91E00E94FD0084E90E94890086EF5A
:1004100091E00E94FD0084ED0E9489008BE092E053
:100420000E94FD008091DA02882339F01092DA02EE
:1004300081E0809301031092DC028091E802811137
:100440001092E8028091DB0281111092DB02299662
:100450000FB6F894DEBF0FBECDBFDF91CF910895E8
:1004600080E80E94890080E292E00E94FD0080EC1A
:100470000E94890085E191E00E94FD0084E90E94CC
:10048000890080E091E00E94FD0084ED0E948900D7
:1004900085E392E00E94FD008091DA02882341F01A
:1004A0001092DA0282E08093010381E08093DC0203
:1004B0008091E802882339F01092E802109201033B
:1004C00081E08093DC028091DB0281111092DB02DB
:1004D0000895CF93DF938FED92E00E94770380E839
:1004E0000E9489008AE492E00E94FD0080EC0E9454
:1004F00089008EE592E00E94FD0084E90E94890057
:1005000081E092E00E94FD00CFEDD2E089818295EA
:100510008F70805D0E94C30089818F70805D0E9412
:10052000C30081E092E00E94FD0084ED0E948900FA
:1005300083E792E00E94FD008091DA02882341F077
:100540001092DA0283E08093010382E08093DC0260
:100550008091E802882341F01092E80281E08093C4
:10056000010382E08093DC028091DB028111109212
:10057000DB02DF91CF910895CF93DF938FED92E06F
:100580000E94770380E80E94890088E892E00E9438
:10059000FD0080EC0E9489008CE992E00E94FD0041
:1005A00084E90E94890081E092E00E94FD00CFED85
:1005B000D2E0888182958F70805D0E94C30088811F
:1005C0008F70805D0E94C30081E092E00E94FD0078
:1005D00084ED0E94890081EB92E00E94FD008091F1
:1005E000DA02882329F01092DA0283E08093DC0299
:1005F0008091E802882341F01092E80282E0809323
:10060000010383E08093DC028091DB028111109270
:10061000DB02DF91CF91089580910103813049F091
:1006200028F0823049F0833051F00CC00E94BF01A5
:1006300008950E94300208950E94690208950E9460
:10064000BC0208950E94BF0108951092DA02109230
:10065000E8021092DB02109201031092DC02109269
:10066000E7021092E6028AE090E09093DE02809327
:10067000DD020E94170180E80E94890086EC92E06A
:100680000E94FD0080E387B98FE08093690083E0DA
:100690008DBB85E085BD88EF86BDEEE6F0E080810C
:1006A0008160808378941092EA021092E90210929D
:1006B000EC021092EB020E94670380E80E9489001E
:1006C00086EF91E00E94FD000E940C03FDCF0E9486
:1006D00053000E945C0080ED0E946F0087E00E9442
:1006E0006F0080E00E946F000E9465000895CF9324
:1006F000DF93EC010E945C0080ED0E946F0080E0BF
:100700000E946F000E9465000E945C0081ED0E94C3
:100710006F0081E00E947A00888381E00E947A0065
:10072000898381E00E947A008A8381E00E947A00B6
:100730008B8381E00E947A008C8381E00E947A00A2
:100740008D8380E00E947A008E830E946500DF9195
:08075000CF910895F894FFCF4A
:100758002020202020202020202020202020202091
:100768002020202000506172616D6574726F203006
:1007780020202020202020202000506172616D65FB
:1007880074726F203120202020202020202000504B
:100798006172616D6574726F2032202020202020E4
:1007A80020202000506172616D6574726F203320C3
:1007B800202020202020202000506172616D657467
:1007C800726F20342020202020202020200050611B
:1007D80072616D6574726F203520202020202020E2
:1007E800202000506172616D6574726F2036202080
:1007F8002020202020202000506172616D657472D5
:100808006F203720202020202020202000506172D7
:10081800616D6574726F20382020202020202020F0
:100828002000506172616D6574726F20392020203C
:10083800202020202020003332280C010680546517
:100848006C61203020002020202020202020202023
:1008580020202020202020202020002020202020B0
:100868002020202020202020202020202020300090
:10087800416A7573746520646520506172616D65A5
:1008880074726F7300202020202020202020202038
:10089800202020202020202031002020202020205F
:1008A80074656C6120322020202020202000202028
:1008B80020204D696E75746F20617475616C2020FD
:1008C8002020002020202020202020202020202040
:1008D8002020202020203200202020202020746585
:1008E8006C6120332020202020202000202020534D
:1008F8006567756E646F20617475616C20202020B7
:1009080000202020202020202020202020202020FF
:100918002020202033002020496E696369616C69BA
:0A0928007A616E646F2E2E2E00001F
:00000001FF
