S00B000049484D2E737265633B
S11300000C9443000C9460000C9460000C94600009
S11300100C9460000C9460000C9460000C945820C4
S11300200C9460000C9460000C9460000C946000CC
S11300300C9460000C9460000C9460000C946000BC
S11300400C94D1200C9460000C946D1F0C94172018
S11300500C94EC1F0C9460000C9460000C946000F1
S11300600C9460000C94600046034F03B603BD0378
S1130070A104A104A104A104A104A1044C045204F8
S1130080650478048D0411241FBECFEFD8E0DEBFD1
S1130090CDBF12E0A0E0B1E0E8E3F0E502C00590D6
S11300A00D92AA30B107D9F726E0AAE0B2E001C068
S11300B01D92A63AB207E1F70E9497250C941A28DC
S11300C00C9400008FEF8EBD0DB407FEFDCF8EB5EE
S11300D0089582E380930B020E9462008F3F21F017
S11300E090910B029111F8CF21E030E08F3F11F095
S11300F020E030E0C9010895439A0E946200089507
S1130100CF93DF9343980E9462000E946900EC0140
S1130110892B19F40E947C0002C0C1E0D0E0CE011A
S1130120DF91CF9108951CBC84B1837D84B9809103
S1130130000181608093000108950F931F93CF9372
S1130140DF93082F192FEB0184E180930C020E94A6
S113015062008F3F39F480910C028111F8CF80E066
S113016090E030C08E3F61F5E02FF12F8FEF8EBD10
S11301700DB407FEFDCF9EB5DF0190838EBD0DB497
S113018007FEFDCF9EB511969C9311978EBD0DB4BD
S113019007FEFDCF9EB512969C9312978EBD0DB4AB
S11301A007FEFDCF9EB513969C9324973496209713
S11301B0F1F60E9462000E94620081E090E002C0B9
S11301C080E090E0DF91CF911F910F9108950F93FC
S11301D01F93CF938C01C62F0E946900009781F171
S11301E0CEBD0DB407FEFDCFCD3F41F1F80198011E
S11301F03E5FDF0180818EBD0DB407FEFDCF1196F9
S11302008C918EBD0DB407FEFDCF3296E217F30735
S113021081F78FEF8EBD0DB407FEFDCF8FEF8EBD3E
S11302200DB407FEFDCF0E9462008F7131E020E023
S1130230853009F030E0832F922F02C081E090E0F6
S1130240CF911F910F910895CF92DF92EF92FF9279
S1130250CF93C82F6A017B01882354F440E050E017
S1130260BA0187E30E942401823008F042C0CF77AC
S11302700E947C000E948000892BD1F18C2F806425
S11302808EBD0DB407FEFDCF8F2D9927AA27BB275E
S11302908EBD0DB407FEFDCFC701AA27BB278EBDB7
S11302A00DB407FEFDCFBB27AF2D9E2D8D2D8EBD2A
S11302B00DB407FEFDCFCEBC0DB407FEFDCFCC239D
S11302C021F0C83021F487E803C085E901C081E04A
S11302D08EBD0DB407FEFDCFCC3011F40E94620038
S11302E0CAE00E946200882324F4C150D1F701C0FF
S11302F08FEFCF91FF90EF90DF90CF90089560E063
S113030070E0CB010895CF92DF92EF92FF920F93AA
S11303101F93CF93DF9300D000D0CDB7DEB7811108
S1130320A3C08091000181FF03C080910001A9C096
S11303302C9A84B18C6284B982E58CBD91E09DBD18
S11303408CBD1AE00E9462001150E1F740E050E0D9
S1130350BA0180E00E942401813009F08DC084E656
S113036080930C024AEA51E060E070E088E00E9469
S11303702401813009F03FC0CE0101966C017E0159
S113038095E0E90EF11C86010E946200F801819358
S11303908F01EE16FF06C1F78B81813009F06CC026
S11303A08C818A3A09F068C080910C02882349F054
S11303B040E050E060E070E489EA0E942401811189
S11303C0F3CF80910C02882309F456C040E050E03A
S11303D0BA018AE30E94240181114EC00E94620086
S11303E0F60181936F01EE16FF06C1F7898186FD40
S11303F03DC084E03CC040E050E0BA0189EA0E947C
S11304002401823018F001E011E002C002E019EA90
S113041080910C02882341F040E050E0BA01812F22
S11304200E9424018111F4CF80910C02882321F1D0
S113043040E052E060E070E080E10E94240181111C
S11304401BC000930A020E947C00002341F08091AB
S113045000018E7F8093000180E58CBD02C00E9464
S11304609300809100010DC081E00BC08CE080936B
S11304700A020E947C00EBCF10920A020E947C00C8
S1130480EECF0F900F900F900F90DF91CF911F91AF
S11304900F91FF90EF90DF90CF900895811103C0EA
S11304A080910001089581E008950F93CF93DF9325
S11304B0EB01811144C0002309F443C08091000181
S11304C080FD41C080910A0283FD09C0012E19E01C
S11304D0220F331F441F551F1A95D1F7102D0130D9
S11304E081F4BA01A90181E10E942401811120C093
S11304F060E072E0CE010E949D00892BC9F000E00B
S113050017C0BA01A90182E10E942401811110C01F
S113051060E072E0CE010E949D00892B19F0DE5F3D
S11305200150B1F740E050E0BA018CE00E94240190
S11305300E947C0081E0011107C080E005C084E0D6
S113054003C084E001C083E0DF91CF910F9108954F
S1130550CF92DF92EF92FF920F93CF93DF93EB0151
S113056069017A01811151C0002309F450C08091BE
S1130570000180FD4EC08091000182FD4CC080913D
S11305800A0283FD09C00B2EB9E0CC0CDD1CEE1C65
S1130590FF1CBA95D1F7B02D013079F4B701A6014B
S11305A088E10E942401811129C06EEFCE010E94CE
S11305B0E700892B19F100E021C0867039F0402F43
S11305C050E060E070E087E90E942401B701A601D1
S11305D089E10E942401811111C06CEFCE010E94B7
S11305E0E700892B19F0DE5F0150B9F76DEF80E069
S11305F090E00E94E700892B09F401E00E947C004E
S113060081E0011109C080E007C084E005C084E0F6
S113061003C083E001C082E0DF91CF910F91FF908E
S1130620EF90DF90CF900895EF92FF920F931F9376
S1130630CF93DF93CDB7DEB760970FB6F894DEBFE4
S11306400FBECDBF811198C18A01653081F4FA01D2
S11306508081882319F0813029F090C10E94930091
S113066080E08FC181E0FA01818380E08AC18091BA
S1130670000180FD85C1862F90E08F30910508F040
S113068060C1FC01EC5CFF4F0C94E6270E948000E3
S1130690892B09F458C10E947C0010E069C140E034
S11306A050E0BA0189E00E94240181114EC160E149
S11306B070E0CE0101960E949D00892B09F447C188
S11306C0898182958695869583708130D9F4898550
S11306D090E0382F22278A8590E00196820F931F9D
S11306E0A0E0B0E0072E7AE0880F991FAA1FBB1F75
S11306F07A95D1F7702DF80180839183A283B38317
S113070010E036C129852295269526952370888583
S1130710F4E08F9FC0011124820F911D9C012F5F73
S11307203F4F8F81837090E0982F8827990F990FFE
S1130730820F931FA0E0B0E03E813F702B85221F03
S11307402227221F320F2A852370220F230F2750BE
S113075004C0880F991FAA1FBB1F2A95D2F7F8015E
S113076080839183A283B38310E002C180E092E08E
S1130770FA019183808310E0FBC0F0900A02F2FE3C
S113078031C040E050E0BA018DE80E94240181119B
S1130790E0C00E94620060E170E0CE0101960E9418
S11307A09D00892B09F4D7C00F2EF0E3FF2EF02D06
S11307B00E946200FA94F110FBCF2B8522952F70D2
S11307C080E190E0A0E0B0E004C0880F991FAA1F68
S11307D0BB1F2A95D2F7F80180839183A283B38348
S11307E010E0C6C040E050E0BA0189E00E94240154
S11307F08111B3C060E170E0CE0101960E949D00BA
S1130800892B09F4ACC0F1FE20C02B852F738C8595
S1130810881F8827881F90E00196820F911D820F00
S1130820911D2E852295269526952370215002C070
S1130830880F991F2A95E2F7A0E0B0E0F8018083C1
S11308409183A283B38310E093C08C85282F2370F7
S113085082958695877090E0F8E02F9F800D911D1A
S1130860112401962B852C7730E035952795359505
S113087027952F5F3F4F829FA001839F500D929F2A
S1130880500D1124CA01A0E0B0E0F80180839183E7
S1130890A283B38310E06CC080910A02FA018083C2
S11308A010E066C040E050E0BA0189E00E942401F3
S11308B0811157C060E170E0C8010E949D0011E001
S11308C0892B09F455C010E053C040E050E0BA0150
S11308D08AE00E942401811146C060E170E0C801F1
S11308E00E949D0011E0892B09F442C010E040C031
S11308F040E050E0BA018AE30E942401811135C02E
S113090078010C5F1F4F0E946200F70181937F0101
S11309100E171F07C1F710E02BC040E050E0BA01EA
S11309208DE80E942401811122C00E94620060E4CB
S113093070E0C8010E949D0011E0892BC9F010E00D
S113094017C014E015C011E013C011E011C011E08C
S11309500FC011E00DC011E00BC011E009C011E09F
S113096007C011E005C011E003C011E001C011E0AF
S11309700E947C00812F05C084E003C084E001C094
S113098083E060960FB6F894DEBF0FBECDBFDF9153
S1130990CF911F910F91FF90EF90089580910C02D9
S11309A0882319F0815080930C0280910B028823D4
S11309B019F0815080930B0280910001897F80930C
S11309C0000108954115510551F0A62FB72FFC01E0
S11309D0480F591F9D919193E417F507D9F708958E
S11309E04F925F926F927F92AF92BF92CF92DF92BB
S11309F0EF92FF920F931F93CF93DF93FC01C2A456
S1130A00D3A4E4A4F5A4C416D506E606F70609F4AF
S1130A104FC02A013B01EC0184818823A1F15F01CD
S1130A20FEE2AF0EB11C01E0A7019601B501898178
S1130A300E94A80281113EC01C824E8D5F8D68A168
S1130A4079A18A8D9B8DAC8DBD8D840F951FA61FBA
S1130A50B71FC816D906EA06FB06A8F41B81123094
S1130A6090F08A8D9B8DAC8DBD8DC80ED91EEA1E6B
S1130A70FB1E01E0A7019601B50189810E94A8022D
S1130A801150113071F74114510461047104A1F043
S1130A9001E0A3019201BE01625D7F4F89810E9442
S1130AA0550281110BC04AA65BA66CA67DA607C0A1
S1130AB080E005C081E003C080E001C081E0DF91F7
S1130AC0CF911F910F91FF90EF90DF90CF90BF9047
S1130AD0AF907F906F905F904F9008950F93CF9356
S1130AE0DF93EC019A01AB01BC01625D7F4F01E031
S1130AF089810E945502811151C0FE01E35DFD4FC1
S1130B00808190E0982F882731972081822B85352A
S1130B109A4A09F045C0E55CF14020813197808113
S1130B2090E0A0E0B0E0DC0199278827B22B32974F
S1130B302081822B3196408150E0542F442760E07D
S1130B4070E0842B952BA62BB72BBB2786349144BE
S1130B50A445B10539F17E9680813197408150E0FA
S1130B6060E070E0BA0155274427782B32978081E2
S1130B70482BCF57DF4F888190E0982F8827A0E03B
S1130B80B0E0482B592B6A2B7B2B772781E0463426
S1130B9051446445710539F480E005C083E003C025
S1130BA082E001C080E0DF91CF910F91089500971A
S1130BB081F0FC012081222371F0268137812617E0
S1130BC0370759F481810E944E0280FD08C080E0FD
S1130BD0089589E0089589E0089589E0089583E0FF
S1130BE008952F923F924F925F926F927F928F92CD
S1130BF09F92AF92BF92CF92DF92EF92FF920F93A8
S1130C001F93CF93DF93CDB7DEB72E970FB6F8942B
S1130C10DEBF0FBECDBFDC01ED91FC9111972081A9
S1130C2030E0205331092A30310548F451815A33D8
S1130C3031F43296ED93FC93232B09F0D7C2E09163
S1130C400F02F0911002FE87ED87DB01ED93FC9318
S1130C50309709F4CDC2142F8081882361F08181FB
S1130C600E944E0280FD07C0112309F4C3C282FF13
S1130C70C3C28AE09FC3ED85FE851082118280E0A5
S1130C800E94830180FDBAC2112311F082FDB8C213
S1130C9040E050E0BA018D859E850E946E0581304A
S1130CA0C1F5ED85FE85E051FE4F8081882309F46E
S1130CB0A9C2ED85FE85E950FE4F8081ED85FE8554
S1130CC0EA50FE4FC080D12CE12CF12C7601DD24BA
S1130CD0CC24F82AED85FE85EC50FE4F8081A701D7
S1130CE09601282BDA01C901ED85FE85EB50FE4FF4
S1130CF0C080D12CDC2CCC24E12CF12CC82AD92A9C
S1130D00EA2AFB2AB701A6018D859E850E946E05FD
S1130D1003C0C12CD12C7601833009F475C2811132
S1130D2075C2AD85BE85DA968C91DA9790E0982FDE
S1130D308827D9962C91822B8115924009F068C29C
S1130D40ED85FE85EB5BFF4F4080512C542C4424F1
S1130D50ED85FE85EC5BFF4F8081482A612C712C68
S1130D60411451046104710449F5ED85FE85EB5A83
S1130D70FF4F8081ED85FE85EC5AFF4F4080512C5A
S1130D80612C712C320155244424782AED85FE858A
S1130D90EE5AFF4F8081A3019201282BDA01C90189
S1130DA0ED85FE85ED5AFF4F4080512C542C442490
S1130DB0612C712C482A592A6A2A7B2AAD85BE8562
S1130DC05A964D925D926D927C925D97FD01A6AD0F
S1130DD0A3838FEF8A0F823008F01CC213AD1283F5
S1130DE0112309F419C2812F90E09C01215031098B
S1130DF082239323892B09F011C2E05CFF4F2080EA
S1130E00312C322C2224ED85FE8587AD282A3186AB
S1130E102086C1018F709927892B09F001C2EE5BEE
S1130E20FF4F8080912C982C8824ED85FE85EF5B04
S1130E30FF4F8081882AA12CB12C81149104A10434
S1130E40B10431F5ED85FE85EF5AFF4F8081ED85C4
S1130E50FE85E05BFF4F8080912CA12CB12C5401C6
S1130E6099248824B82AED85FE85E25BFF4F8081B2
S1130E70882AED85FE85E15BFF4F808190E0982F05
S1130E808827AC0160E070E0842A952AA62AB72A54
S1130E90ED85FE8585ADE82FF0E03E2F2227ED8518
S1130EA0FE8584ADF901E82B309709F4BBC1B0E0AD
S1130EB0A30192010E94FB2769877A878B879C870D
S1130EC09F0140E050E02D833E834F835887C1014A
S1130ED0929582958F7089279F708927280F391FD3
S1130EE0411D511DDA01C90129853A854B855C856F
S1130EF0280F391F4A1F5B1F29833A834B835C8366
S1130F0082169306A406B50608F48EC1C501B40181
S1130F10621B730B840B950B212F30E040E050E0F3
S1130F200E94A527DA01C9012115310541055105A2
S1130F3009F47CC1263F6FE036074105510508F0EE
S1130F4031C2F1E030C2ED85FE85E35AFF4F808166
S1130F50ED85FE85E45AFF4F408150E060E070E08B
S1130F60BA0155274427782BED85FE85E65AFF4FB5
S1130F708081482BED85FE85E55AFF4F8081282F1F
S1130F8030E0922F8827A0E0B0E0482B592B6A2B41
S1130F907B2BAD85BE8592964D935D936D937C932B
S1130FA09597880C991CAA1CBB1C880C991CAA1C1C
S1130FB0BB1CBFEF8B0EB1E09B1EA11CB11C072E06
S1130FC079E0B694A794979487947A95D1F7702D85
S1130FD0481459046A047B0408F42AC185C129858C
S1130FE03A854B855C85C20ED31EE41EF51EAD8585
S1130FF0BE859296CD92DD92ED92FC929597F23059
S113100029F4880C991CAA1CBB1C58C1A3E0B0E0AD
S1131010A50194010E94FB27DC01CB01B695A7959D
S113102097958795E1E08E229924AA24BB24880E03
S1131030991EAA1EBB1E42C1ED85FE85E35DFD4FD0
S1131040808190E0982F8827ED85FE85E45DFD4F33
S11310502081822B85359A4A09F0ABC0AD85BE85C7
S1131060D1962C91D197D0968C9190E0A0E0B0E0ED
S1131070DC0199278827B22BED85FE8526A5AC01D6
S1131080BD01422B27A530E0922F8827A0E0B0E0D5
S1131090842B952BA62BB72B82359245A146B144C0
S11310A009F089C0ED85FE85EB5EFD4F2081ED855D
S11310B0FE85EC5EFD4F808190E0A0E0B0E0DC01B5
S11310C099278827B22BED85FE85EE5EFD4F2081A2
S11310D0AC01BD01422BED85FE85ED5EFD4F208107
S11310E030E0922F8827A0E0B0E0842B952BA62B2C
S11310F0B72B82379247A144B14609F05EC0ED8513
S1131100FE85E35EFD4F2081ED85FE85E45EFD4FA7
S1131110808190E0A0E0B0E0DC0199278827B22B21
S1131120ED85FE85E65EFD4F2081AC01BD01422BBD
S1131130ED85FE85E55EFD4F208130E0922F882706
S1131140A0E0B0E0842B952BA62BB72BED85FE8574
S113115082879387A487B587E75EFD4F2081ED855D
S1131160FE85E85EFD4F808190E0A0E0B0E0DC0108
S113117099278827B22BED85FE85EA5EFD4F2081F5
S1131180AC01BD01422BED85FE85E95EFD4F20815A
S113119030E0922F8827A0E0B0E0842B952BA62B7B
S11311A0B72BED85FE8586879787A08BB18BF3E0FF
S11311B005C0F3E003C0F3E001C0F3E0AD85BE85F4
S11311C0FC9380910D0290910E02019690930E0271
S11311D080930D0217969C938E931697FD0112A689
S11311E013A614A615A6148280E0E4C08BE0E2C026
S11311F08CE0E0C080E0DEC080E0DCC083E0DAC0E8
S11312008AE0D8C08DE0D6C081E0D4C08DE0D2C0E1
S11312108DE0D0C08DE0CEC08DE0CCC08DE0CAC0E2
S11312208DE0C8C08DE0C6C08DE0C4C08DE0C2C0F2
S11312308DE0C0C08DE0BEC08DE0BCC08DE0BAC002
S113124049015A01F2E08F0E911CA11CB11CAD851D
S1131250BE8556968D929D92AD92BC925997898186
S11312609A81AB81BC818C0D9D1DAE1DBF1DED858A
S1131270FE8586A397A3A0A7B1A78D819E81AF8188
S1131280B8858C0D9D1DAE1DBF1D868F978FA0A3A5
S1131290B1A3232879F657CE4FEF5FEFBA01AD859E
S11312A0BE851E964D935D936D937C9351971A96CC
S11312B01D921D921D921C921D9780CFBFEF8B0E25
S11312C0B1E09B1EA11CB11C072E79E0B694A79433
S11312D0979487947A95D1F7702D481459046A0429
S11312E07B0408F4A9CFD8CF8FEF9FEFDC01ED8505
S11312F0FE8586879787A08BB18BDF0112861386C4
S1131300148615861582E15AFF4F808190E0982F4C
S1131310882731972081822BA7019601280F391F36
S1131320411D511DFD01228B338B448B558B01E0F4
S1131330BD01625D7F4F81810E945502882309F4BB
S11313407BCEF3E03BCF49015A0162E0860E911C4B
S1131350A11CB11CAD85BE8556968D929D92AD9211
S1131360BC92599749815A816B817C814C0D5D1DDA
S11313706E1D7F1D96964D935D936D937C93999707
S11313802D813E814F815885C20ED31EE41EF51E69
S11313905E96CD92DD92ED92FC929197232809F40A
S11313A04DCF1DCEF2E0863F9F4FA105B10508F059
S11313B047CFC9CF2E960FB6F894DEBF0FBECDBF70
S11313C0DF91CF911F910F91FF90EF90DF90CF901D
S11313D0BF90AF909F908F907F906F905F904F9051
S11313E03F902F9008950F93CF93DF93EC0140E04B
S11313F050E0BA010E94F004982F81115AC08881EC
S1131400833009F04CC08D81882309F448C01AA6A2
S11314101BA61CA61DA6BE01625D7F4FFB01CE016B
S1131420825D9D4F1192E817F907E1F785E5FE010A
S1131430E45DFD4F80838AEA3196808382E58EA73E
S11314408FA781E688AB91E499AB22E77B97208351
S11314503196208331969083319680833E852F8503
S11314609889898931963083319620833196908387
S1131470319680833A852B859C858D853196308382
S11314803196208331969083319680832A893B89D3
S11314904C895D8901E089810E94A8021D8240E097
S11314A050E060E089810E94140391E0811101C041
S11314B090E0892FDF91CF910F9108950F931F939F
S11314C0FC019A01AB012250310941095109868975
S11314D09789A08DB18D0297A109B1092817390701
S11314E04A075B0768F4A281B0E00E94FB2706A1CB
S11314F017A120A531A5600F711F821F931F03C080
S113150060E070E0CB011F910F910895AF92BF92FC
S1131510CF92DF92EF92FF921F93CF93DF934230EB
S113152051056105710508F4CAC0FC01C688D78855
S1131530E08CF18C4C155D056E057F0508F0C4C088
S11315406A017B01EC018081823009F44CC0833054
S113155009F470C0813009F0BCC05A01B694A79454
S1131560A40EB51EC501892F99278695468D578DE2
S113157060A171A1480F591F611D711DCF010E9407
S1131580F0048111AAC0F501F170EC0FFD1F16A53E
S1131590FFEFAF1ABF0AC501892F992786954E8D93
S11315A05F8D68A179A1480F591F611D711DCE017E
S11315B00E94F004811195C081E0B822CA0DDB1DA0
S11315C08EA5612F70E0782BC0FE09C072956295DC
S11315D06F7067277F70672780E090E08DC07F7011
S11315E080E090E089C0452F562F672F7727868D9E
S11315F0978DA0A1B1A1480F591F6A1F7B1FCF016E
S11316000E94F004811171C0CC0CDD1CEE1CFF1C87
S1131610E894C0F8E1E0DE22EE24FF24FE01EC0DA4
S1131620FD1D67A570E0762F662786A5682B80E0F0
S113163090E062C0868D978DA0A1B1A1689416F840
S113164076956795579547951694D1F7480F591F86
S11316506A1F7B1FCF010E94F00481114AC0CC0C89
S1131660DD1CEE1CFF1CCC0CDD1CEE1CFF1CFCEF77
S1131670CF22F1E0DF22EE24FF24F601BE96EC0F28
S1131680FD1F23816281862F90E0A0E0B0E0DC01A1
S113169099278827AC01BD01722B818190E0982F96
S11316A08827A0E0B0E0842B952BA62BB72BCC0D7C
S11316B0DD1D2EA5822BBC01CD019F701DC061E0F4
S11316C070E080E090E018C061E070E080E090E0BD
S11316D013C06FEF7FEFCB010FC06FEF7FEFCB0134
S11316E00BC06FEF7FEFCB0107C06FEF7FEFCB0134
S11316F003C06FEF7FEFCB01DF91CF911F91FF907C
S1131700EF90DF90CF90BF90AF900895EF92FF924B
S11317100F931F93CF93DF93EC018B017D836C8335
S11317204E815F8168857985413051056105710578
S113173009F492C0E881F98186899789A08DB18DD9
S1131740481759076A077B0708F088C041155105F7
S11317506105710551F58081833049F442A153A19B
S113176064A175A14115510561057105F1F41A864D
S11317701B861C861D86808591850817190708F02D
S11317806FC082A193A1A4A1B5A19801329522951D
S11317902F7023273F702327820F931FA11DB11D94
S11317A08E879F87A88BB98B44C0E28080E1E89E36
S11317B0700111240E151F0518F1888199810E946A
S11317C0860AAB01BC014F3F8FEF580768077807C3
S11317D009F448C0423051056105710508F444C05C
S11317E0E881F98186899789A08DB18D48175907B9
S11317F06A077B07D8F50E191F090E151F05E8F6B1
S11318004A875B876C877D87888199810E945E0AFD
S11318109801329522952F7023273F702327DC01EE
S1131820CB01820F931FA11DB11D8E879F87A88BAB
S1131830B98B888199818E960F701127000F111F23
S113184002951295107F1027007F1027080F191F8B
S11318501B8B0A8B80E00BC082E009C082E007C0CA
S113186082E005C081E003C082E001C082E0DF9134
S1131870CF911F910F91FF90EF9008957F928F92D7
S11318809F92AF92BF92CF92DF92EF92FF920F930B
S11318901F93CF93DF93423051056105710508F41E
S11318A0E7C0FC01C688D788E08CF18C4C155D0537
S11318B06E057F0508F0E0C0680179014A015B010B
S11318C0EC018081823009F462C0833009F484C061
S11318D0813009F0C3C08A0116950795040F151FBE
S11318E0C801892F99278695468D578D60A171A1CE
S11318F0480F591F611D711DCF010E94F004782EFD
S11319008111B3C0C801917080FE22C0FE01E80FAE
S1131910F91F86A5282F2F7030E1C39EC001112422
S1131920822B86A70F5F1F4F81E08C83C801892F0C
S1131930992786954E8D5F8D68A179A1480F591F0F
S1131940611D711DCE010E94F00481118BC098C0ED
S1131950FE01E80FF91FC6A60F5F1F4F81E08C83BD
S1131960C801892F992786954E8D5F8D68A179A12D
S1131970480F591F611D711DCE010E94F004811191
S113198073C089C0FE01E80FF91FC6A66EC0452FBB
S1131990562F672F7727868D978DA0A1B1A1480F69
S11319A0591F6A1F7B1FCF010E94F004782E8111FA
S11319B05CC0B501A401440F551F661F771F4E7FFD
S11319C0517066277727FE01E40FF51FC6A6FE01B6
S11319D0E40FF51FD7A649C0868D978DA0A1B1A1AC
S11319E0689416F876956795579547951694D1F7A8
S11319F0480F591F6A1F7B1FCF010E94F004782EE5
S1131A00811133C0B501A401440F551F661F771F10
S1131A10440F551F661F771F4C7F51706627772729
S1131A20FA01BE96EC0FFD1F8381028110E020E0D5
S1131A3030E0980111270027382BDE01A40FB51FD1
S1131A40002711272227307FC02AD12AE22AF32A2D
S1131A509E96CC92D182E282F38207C06894772466
S1131A6071F803C0782E01C0782E81E08C831FC0EA
S1131A706894772471F81BC06894772471F817C0B0
S1131A80C8019170689413F8F694E794D794C794B6
S1131A901694D1F777CFC8019170FE01E80FF91FB2
S1131AA036A5307F2D2D2F70C32EC22A6BCF872DE4
S1131AB0DF91CF911F910F91FF90EF90DF90CF9026
S1131AC0BF90AF909F908F907F9008954F925F92B8
S1131AD06F927F928F929F92AF92BF92CF92DF923A
S1131AE0EF92FF920F931F93CF93DF93EC012A01A0
S1131AF03B014115510561057105B9F48A849B8444
S1131B00AC84BD8481149104A104B10429F18E89AB
S1131B109F89A88DB98D88169906AA06BB0600F17F
S1131B20812C912C540183941BC00E94860A6B0162
S1131B307C01623071058105910508F486C08E89A7
S1131B409F89A88DB98DC816D906EA06FB0608F444
S1131B5081C05301420104C0812C912C540183940F
S1131B60750164018FEFC81AD80AE80AF80A8E8949
S1131B709F89A88DB98DC816D906EA06FB0660F0C0
S1131B8022E082169104A104B10408F468C0C12CB7
S1131B90D12C76016894C1F8B701A601CE010E9448
S1131BA0860A611571058105910599F06F3F2FEF44
S1131BB072078207920709F457C0613071058105E5
S1131BC0910509F456C0C814D904EA04FB0451F67B
S1131BD055C00FEF1FEF2FEF3FE0B701A601CE0175
S1131BE00E943E0C81112AC0411451046104710405
S1131BF049F097018601B301A201CE010E943E0C77
S1131C0081111CC0CA86DB86EC86FD868E859F8585
S1131C10A889B9898F3F2FEF9207A207B20799F1DC
S1131C200197A109B1098E879F87A88BB98B81E0A1
S1131C308D836C2D7D2D8E2D9F2D2EC0813041F1F5
S1131C4061E070E080E090E027C061E070E080E057
S1131C5090E022C06C2D7D2D8E2D9F2D1DC060E047
S1131C6070E080E090E018C06FEF7FEF8FEF9FEFA0
S1131C7013C061E070E080E090E00EC060E070E0CE
S1131C8080E090E009C06C2D7D2D8E2D9F2D04C029
S1131C906FEF7FEF8FEF9FEFDF91CF911F910F9148
S1131CA0FF90EF90DF90CF90BF90AF909F908F9078
S1131CB07F906F905F904F9008958F929F92AF9214
S1131CC0BF92CF92DF92EF92FF920F931F93CF9325
S1131CD0DF93DC011496CD91DC911597219609F4DC
S1131CE002C11E968D909D90AD90BC905197811429
S1131CF09104A104B10409F4F8C07B018C016E01C4
S1131D00BFE0CB22DD24C114D10409F0D6C0EFEF2B
S1131D108E1A9E0AAE0ABE0ADC011E968D929D9210
S1131D20AD92BC9251971A964D915D916D917C91B3
S1131D301D97411551056105710549F4ED91FC911B
S1131D4080859185C817D90708F0D1C0B6C0DC01D9
S1131D50ED91FC91228130E021503109CE01929520
S1131D6082958F7089279F70892728233923232BF5
S1131D7009F0A3C0CF010E94860A4B015C016230C6
S1131D8071058105910508F4B4C06F3F7F4F8F4FF3
S1131D909F4F09F4B0C0D801ED91FC9186899789D1
S1131DA0A08DB18D88169906AA06BB0608F473C0E7
S1131DB0EF2809F4A2C0D8011A964D915D916D9156
S1131DC07C911D97CF010E94660D4B015C0161154A
S1131DD071058105910509F492C061307105810591
S1131DE0910509F48EC06F3F7F4F8F4F9F4F09F4C9
S1131DF08AC040E050E0BA01D8018D919C910E94C4
S1131E00F004811182C0F80180819181FC01BE96A9
S1131E10825D9D4F1192E817F907E1F7D801ED9023
S1131E20FC90B501A401C7010E945E0AF70162A7F4
S1131E3073A784A795A7F12CEE24E3941AC0E48237
S1131E4040E050E0BA01D8018D919C910E94F004C9
S1131E5081115DC0D801ED91FC9182A593A5A4A543
S1131E60B5A50196A11DB11D82A793A7A4A7B5A7E7
S1131E70F394D801ED91FC918281F81600F382A5C8
S1131E8093A5A4A5B5A58F199109A109B10982A7A4
S1131E9093A7A4A7B5A7F80182869386A486B586DE
S1131EA0B501A401808191810E945E0AD8011E9629
S1131EB06D937D938D939C935197F801D583C4833F
S1131EC0808191818E96CC0CDD1CCC0CDD1CCC0C5D
S1131ED0DD1CCC0CDD1CCC0CDD1CC80ED91ED38A39
S1131EE0C28A80E015C084E013C084E011C084E09D
S1131EF00FC082E00DC081E00BC084E009C087E020
S1131F0007C082E005C081E003C081E001C081E038
S1131F10DF91CF911F910F91FF90EF90DF90CF90C1
S1131F20BF90AF909F908F9008952F923F924F92C1
S1131F305F926F927F928F929F92AF92BF92CF9255
S1131F40DF92EF92FF920F931F93CF93DF93EC01F5
S1131F507B01DB018C918F3211F08C3519F4BFEFCA
S1131F60EB1AFB0A1E821F8218861986F7018081EC
S1131F70803240F460E070E0CE010E94860B1B8A40
S1131F801A8A50C110E26894AA24A3F8B12C0F2E27
S1131F90FBE02F2EF02D812C0F2EF5E03F2EF02D9F
S1131FA0D701CD012D912F32E1F32C35D1F3EC89FA
S1131FB0FD89DF019F01255F3F4F1D93A217B307E2
S1131FC0E1F740E050E060E070E02A2D3B2D912CD9
S1131FD03B01AFEF6A1A7A0A7C01E60EF71ED701BD
S1131FE00C91013208F409C10F3209F401C10C3516
S1131FF009F4FEC00E3209F410C14217530708F069
S1132000E1C008C0990C990CB30148E050E0222DBE
S1132010382DDECF00231CF4B92DB3609B2E0F2E78
S1132020FFE7FF2EF02DF00EAEE1AF1538F4689403
S1132030FF24F5F8F00EBCE1BF1508F16E5F7F4F89
S1132040D301A80FB91FFC90A0ECAF0DAF3328F05B
S1132050A0E8AF0DAD3708F0B7C0D90111974A1702
S11320605B0708F0B3C0DF01A40FB51F0C93DA01BE
S11320701196AE0FBF1F4E5F5F4FFC92A9CFC02ECB
S1132080D12C62E2C616D10409F4A2C00F2EFBE0E3
S1132090EF2EF1E0FF2EF02DD7016D917D01662327
S11320A009F4A0C070E0C616D706B1F786E0BAC03E
S11320B0B92DB2609B2E08C06FE9600F6A3120F41D
S11320C0692D6160962E0052BF01640F751FDB01FC
S11320D00C934F5F5F4FB3017BCF452B09F47AC05C
S11320E09081953E09F430822830310511F4990C21
S11320F0990C992D9370913009F48061992D9C70FD
S1132100943009F48860838760E070E0CE010E9417
S1132110860B811177C04E855F85688979898881AE
S113212099810E94F00481116DC04A895B89FA018A
S113213090819923D1F0C384C3FC0FC06C897D893D
S1132140DB019A01255F3F4F04C02E173F0709F4B6
S11321505FC0D1909D91D916C1F360E070E0CE01CB
S11321600E945D0E8823B9F24DC0EC89FD899385E8
S113217092FD32C085E056C0C4FE30C0DA015596E7
S11321804C905597512C542C442454968C9154972C
S1132190482A612C712C3201552444245B968C917D
S11321A05B9790E0982F88275A962C91822BA0E079
S11321B0B0E0482A592A6A2A7B2A4E825F826886BE
S11321C07986EECE86E02EC086E02CC086E02AC05A
S11321D086E028C086E026C084E024C085E022C0D2
S11321E086E020C06FEB600F6A3108F461CF64CFE2
S11321F07C01E60CF71C80E070CF7C01E60CF71C38
S113220084E06BCFEC89FD899385843059F4B0CF99
S1132210FB01938592FFB0CF05C02830310509F446
S1132220F1CEDECFDF91CF911F910F91FF90EF9010
S1132230DF90CF90BF90AF909F908F907F906F90E2
S11322405F904F903F902F9008950F931F93CF93DB
S11322508C0160E070E00E94860BC82F811147C09A
S1132260D8011E964D915D916D917C9151978D9100
S11322709C910E94F004C82F811139C0D801529654
S1132280ED91FC9153978081853E29F1882319F1C2
S113229061E070E0C8010E945D0EC82F882301F33D
S11322A026C0F80182899389FC019C01205E3F4F7E
S11322B01192E217F307E1F7D80154966D917C91DE
S11322C055974BE050E00E94E204D801ED91FC9157
S11322D081E084830CC0F801468557856089718943
S11322E0808191810E94F004C82F8823D1F28C2F21
S11322F0CF911F910F9108957F928F929F92AF92E9
S1132300BF92CF92DF92EF92FF920F931F93CF93DE
S1132310DF93EC016A017B014230510561057105CF
S113232008F44CC08E899F89A88DB98D4817590728
S11323306A077B0708F044C077247394B701A601A9
S1132340CE010E94860A4B015C01672B682B692B26
S1132350C9F191E089169104A104B104A9F18FEFA8
S113236088169806A806B80689F100E010E09801DE
S1132370B701A601CE010E943E0C811128C04E85F2
S11323805F85688979894F3F9FEF59076907790706
S113239049F04F5F5F4F6F4F7F4F4E875F87688B6A
S11323A0798B7D82750164014E895F89688D798D91
S11323B084169506A606B70608F209C082E007C08F
S11323C082E005C080E003C082E001C081E0DF91CB
S11323D0CF911F910F91FF90EF90DF90CF90BF901E
S11323E0AF909F908F907F900895811112C0E091DB
S11323F00F02F0911002309709F0108261157105F7
S113240011F0FB0110827093100260930F0280E0C0
S113241008958BE008954F925F926F927F928F920E
S11324209F92AF92BF92CF92DF92EF92FF920F935F
S11324301F93CF93DF93CDB7DEB7A4970FB6F8946D
S1132440DEBF0FBECDBF7C017CA36BA3D42EDC0109
S11324501D921C92B42FBF71CB2E4E71BE016F5FC3
S11324607F4FCE0183960E94F1059E01295E3F4F66
S11324703E8B2D8B8111E2C06BA17CA1CE01019614
S11324800E94950F0B891C898111DFC0011511056C
S113249009F0E5C0DFC0843021F4CE0101960E942A
S11324A02511EC2DE860CE2E0B891C89882349F078
S11324B0F1C0D8011B968C91817109F0E4C0D2FC63
S11324C0E4C0C3FE59C00E947F01F8016687778784
S11324D0808B918B1386148E158E168E178E85889D
S11324E0912C982C88248489882AA12CB12CD4017D
S11324F099278827838C912C982C8824228D822AD2
S1132500A12CB12C882A992AAA2ABB2A128E138EAE
S1132510148A158AE981FA8181E084838114910403
S1132520A104B10431F142A453A464A475A4B50177
S1132530A401CF010E947C118111ACC089819A81D0
S1132540F1E08F1A9108A108B108DC011A968D9266
S11325509D92AD92BC921D97B301A2010E94F0041A
S1132560882339F097C0D1FE02C080FD90C0D3FE0D
S113257003C0BC2DB062CB2EE981FA8182A593A55C
S1132580A4A5B5A5F701828F938FA48FB58F178F5C
S1132590068FD7011496CC92F801858990E0982F84
S11325A088272489822BA0E0B0E0DC0199278827C2
S11325B0438D50E0542F4427228D422B60E070E07D
S11325C0842B952BA62BB72BF70186879787A08B97
S11325D0B18BD8015F962C915F975E968C9190E0B9
S11325E0A0E0B0E0DC0199278827B22BF801248D04
S11325F0822B458D50E0542F442760E070E0842BFB
S1132600952BA62BB72BF70182879387A487B587D1
S1132610D7011682178210861186168A178A108EA1
S1132620118EE981FA811196FC93EE93868197814C
S113263013969C938E93129780E02CC00B891C896F
S11326409D2D9C7109F027CF0FC09D2D9C7109F021
S113265022CF0AC08D2D8C7151F486E005C08D2DDA
S11326608C7109F026CF0AC0811114C092CFBC2D01
S1132670B860CB2E0B891C8986E0F6CFF8018385E0
S113268084FD07C070CF87E005C088E003C087E001
S113269001C084E0A4960FB6F894DEBF0FBECDBF90
S11326A0DF91CF911F910F91FF90EF90DF90CF902A
S11326B0BF90AF909F908F907F906F905F904F905E
S11326C008952F923F924F925F926F927F928F92D2
S11326D09F92AF92BF92CF92DF92EF92FF920F93AD
S11326E01F93CF93DF93EC014B016A015901F90168
S11326F0118210826A817B81888199810E94D70529
S113270081117AC18C8188230CF473C181FF73C158
S11327108A859B85AC85BD85AC01BD014C0D5D1DD5
S1132720611D711D481759076A077B0708F44BC1DF
S1132730C114D10409F447C14E815F81688579854C
S1132740DB01CA019170AA27BB27892B8A2B8B2B0B
S113275009F0F1C0E881F98112811150DB01CA014D
S1132760072E79E0B695A795979587957A95D1F731
S1132770702D1823F1F5452B462B472BA1F46E85BC
S11327807F85888999896115710581059105C1F451
S113279040E050E0BA01CF010E94660D6E877F874A
S11327A0888B998B07C04A895B896C897D89CF01A5
S11327B00E94660D611571058105910509F403C137
S11327C0613071058105910529F48C8180688C83C1
S11327D082E012C16F3FFFEF7F078F079F0729F445
S11327E08C8180688C8381E007C16A8B7B8B8C8BA6
S11327F09D8BE881F98142A553A564A575A58E89B1
S11328009F89A88DB98D481759076A077B0769F412
S113281040E050E0BA01CF010E94F004882329F07F
S11328208C8180688C8381E0E7C0288039804A8964
S11328305B896C897D89C1010E945E0A61157105FD
S11328408105910529F48C8180688C8382E0D4C051
S11328502B013C01410E511C611C711C7601EF2CB3
S1132860FF24E694E114F10409F441C0F10142812A
S1132870242F30E0C701810F911D2817390718F460
S11328807901E11AF1080E2DA3019201B401F101BD
S113289081810E94A802882329F08C8180688C831E
S11328A081E0AAC0E881F98182A593A5A4A5B5A574
S11328B084199509A609B709A70160E070E0841797
S11328C09507A607B70778F4982F8827990FB401BE
S11328D0680F791F40E052E0CF018E960E94E20417
S11328E0E881F9811482FE2CEE24FF0C53C04E8142
S11328F05F81688579858A859B85AC85BD85481708
S113290059076A077B0798F040E050E0BA01C1011B
S11329100E94F004882329F08C8180688C8381E0F4
S11329206BC0E881F98142A653A664A675A64E8AB7
S11329305F8A688E798E8E819F81917020E032E06B
S11329407901E81AF90ACE14DF0408F476014E89F5
S11329505F89688D798D888199810E94F00488232C
S113296029F08C8180688C8381E046C08E819F81B0
S1132970A885B9859170AA27BB278E9628813981AD
S1132980A701B401820F931F0E94E204E881F98138
S113299021E024838E0C9F1C8E819F81A885B9859C
S11329A08E0D9F1DA11DB11D8E839F83A887B9879E
S11329B0F501808191818E0D9F1D91838083CE18B6
S11329C0DF0809F0B9CE8E819F81A885B9854A8533
S11329D05B856C857D85481759076A077B0720F45A
S11329E08A879B87AC87BD878C8180628C8380E0DB
S11329F003C082E001C087E0DF91CF911F910F9166
S1132A00FF90EF90DF90CF90BF90AF909F908F900A
S1132A107F906F905F904F903F902F9008950F9309
S1132A201F93CF93DF93EC016A817B818881998125
S1132A300E94D705811135C09C8195FF32C04A8D13
S1132A405B8D6C8D7D8D888199810E94F00481114C
S1132A5028C00E8D1F8DF8018385806283878A8547
S1132A60848F8B85858F8C85868F8D85878F8E85CA
S1132A70828F8F85838F8889848B8989858B0E9437
S1132A807F01F801668B778B808F918F8C818F7D8E
S1132A908C83E881F98181E08483888199810E9413
S1132AA0F309DF91CF911F910F910895CF93DF9395
S1132AB0EC010E940F15811102C019821882DF9166
S1132AC0CF9108954F925F926F927F928F929F92CF
S1132AD0AF92BF92CF92DF92EF92FF920F931F9328
S1132AE0CF93DF9300D000D000D0CDB7DEB79E8364
S1132AF08D836A017B01DC0112966D917C911397A1
S1132B008D919C910E94D70581119DC1ED81FE811B
S1132B10848188230CF492C142855385648575852C
S1132B204C155D056E057F0520F481FD02C06A0128
S1132B307B01AD81BE8116964D905D906D907C9029
S1132B401997FD011682178210861186C114D104CB
S1132B50E104F10409F474C100811181D8011296D1
S1132B608C90912CA12CB12C072E79E0880C991C07
S1132B70AA1CBB1C7A95D1F7702D41145104610431
S1132B80710409F440C0B1E04B1A5108610871089E
S1132B90C701B6016150710981099109A501940128
S1132BA00E94A52729833A834B835C83C301B20126
S1132BB0A50194010E94A52789819A81AB81BC81DA
S1132BC082179307A407B507F0F088279927DC013B
S1132BD088199909AA09BB09482259226A227B2229
S1132BE0AD81BE8116964D925D926D927C9219973D
S1132BF0C418D508E608F70852964D915D916D9179
S1132C007C9155973DC0ED81FE814685578560894D
S1132C107189411551056105710561F540E050E088
S1132C20BA01C8010E94660DAB01BC0141305105D7
S1132C306105710551F4AD81BE8114968C91149790
S1132C40806814968C9382E0FEC04F3FBFEF5B0711
S1132C506B077B0739F4ED81FE818481806884836E
S1132C6081E0F1C0AD81BE811E964D935D936D935D
S1132C707C935197ED81FE81428B538B648B758BD2
S1132C80411551056105710509F4A1C08C149D0419
S1132C90AE04BF0408F063C0AD81BE8114968C916C
S1132CA0149781FF0CC08D919C910E94660DAB011D
S1132CB0BC01411551056105710549F44EC0AD8152
S1132CC0BE818D919C910E94860AAB01BC014F3F4D
S1132CD0BFEF5B076B077B0739F4ED81FE818481CD
S1132CE08068848381E0AFC042305105610571057D
S1132CF068F0AD81BE81ED91FC9186899789A08DA4
S1132D00B18D481759076A077B0738F0ED81FE81BA
S1132D1084818068848382E096C0AD81BE815296AE
S1132D204D935D936D937C935597FD0186819781B7
S1132D30A085B185880D991DAA1DBB1D8683978327
S1132D40A087B187C818D908EA08FB088C149D0429
S1132D50AE04BF0408F4A0CF02C075016401ED8184
S1132D60FE8186819781A085B1858C0D9D1DAE1D48
S1132D70BF1D86839783A087B187D701C601917051
S1132D80AA27BB27892B8A2B8B2B29F18081918140
S1132D900E945E0A611571058105910551F4AD81AA
S1132DA0BE8114968C911497806814968C9382E05B
S1132DB04AC00B2EB9E0F694E794D794C794BA9519
S1132DC0D1F7B02DC60ED71EE81EF91E07C0C12CC0
S1132DD0D12C760103C0C12CD12C7601ED81FE816A
S1132DE086819781A085B185AC01BD0151706627AC
S1132DF07727452B462B472B69F046895789608DE9
S1132E00718DC416D506E606F70621F0C68AD78A60
S1132E10E08EF18EED81FE81428553856485758552
S1132E20481759076A077B0768F482879387A48742
S1132E30B58784818062848380E005C082E003C01A
S1132E4080E001C080E026960FB6F894DEBF0FBE86
S1132E50CDBFDF91CF911F910F91FF90EF90DF9045
S1132E60CF90BF90AF909F908F907F906F905F9026
S1132E704F9008951092B90086E48093B80084E0DE
S1132E808093BC00089584EA8093BC00ECEBF0E0EE
S1132E9080818823ECF7089584E98093BC008FE84F
S1132EA091E00197F1F700C0000008958093BB0002
S1132EB084E88093BC00ECEBF0E080818823ECF79D
S1132EC0089520E4829FC001112484688093BC008B
S1132ED0ECEBF0E080818823ECF78091BB0008954F
S1132EE095E89A95F1F700005F9884FF02C0289A4C
S1132EF001C0289885FF02C0299A01C0299886FF3D
S1132F0002C02E9A01C02E98882314F42F9A01C06F
S1132F102F985D9A5D9880FF02C0289A01C0289876
S1132F2081FF02C0299A01C0299882FF02C02E9A0B
S1132F3001C02E9883FF02C02F9A01C02F985D9A7A
S1132F405D98089595E89A95F1F700005F9A84FFDB
S1132F5002C0289A01C0289885FF02C0299A01C09E
S1132F60299886FF02C02E9A01C02E98882314F453
S1132F702F9A01C02F985D9A5D9880FF02C0289A0D
S1132F8001C0289881FF02C0299A01C0299882FFB4
S1132F9002C02E9A01C02E9883FF02C02F9A01C04E
S1132FA02F985D9A5D9808958F92AF92CF92DF9299
S1132FB0EF92FF920F931F93CF93DF93CDB7DEB7BA
S1132FC0D62EF42E122F880F880F880F805C0E9453
S1132FD070178D2D0E94A2178F2D0E94A217812F8A
S1132FE00E94A217802F0E94A2178E2D0E94A21762
S1132FF08C2D0E94A2178A2D0E94A217882D0E9450
S1133000A217DF91CF911F910F91FF90EF90DF9066
S1133010CF90AF908F90089581E00E94701708952B
S1133020CF93DF93D82FC62F611105C080E88D0F91
S11330300E9470170EC0613029F480EC8D0F0E943D
S113304070170DC0623029F484E98D0F0E94701747
S113305006C0C33021F484ED8D0F0E947017DF91F8
S1133060CF9108950F931F93CF93DF93FC01808139
S1133070882369F08F01EF01219607511C4F0E94AC
S1133080A2178991882319F0C017D107C1F7DF91DE
S1133090CF911F910F9108950F931F93CF93DF93B7
S11330A0CDB7DEB72B970FB6F894DEBF0FBECDBFFA
S11330B08C01003187E21807A0F0B80180E090E0AD
S11330C020EA36E841E050E00E94C72720E137E2D9
S11330D040E050E00E94C727205D298341E050E092
S11330E002C040E050E0083E93E01907A8F1FE0159
S11330F0E40FF51F9801329522952F7023273F7016
S11331002327A7E4B3E00E94EC279695879596952C
S113311087959695879560E177E2869F9001879FD2
S1133120300D969F300D1124C801821B930B9C0116
S1133130369527953695279536952795A5ECB0E2D3
S11331400E94EC27929582958F7089279F7089271A
S1133150805D81834F5F5F4F0436110578F1FE0176
S1133160E40FF51F980136952795369527953695E2
S11331702795A5ECB0E20E94EC27929582958F707A
S113318089279F70892768EE73E0869F9001879F47
S1133190300D969F300D1124C801821B930B9C01A6
S11331A03695279536952795ABE7B4E10E94EC2731
S11331B096958795805D81834F5F5F4F0A30110537
S11331C030F1FE01E40FF51F9801369527953695E9
S11331D02795ABE7B4E10E94EC279695879564E6C2
S11331E0689F9001699F300D1124C801821B930BC5
S11331F09C01ADECBCEC0E94EC27969587959695C6
S1133200879596958795805D81834F5F5F4FE1E059
S1133210F0E0EC0FFD1FE40FF51F9801ADECBCECE2
S11332200E94EC2796958795969587959695879510
S11332309C01220F331F880F991F880F991F880F35
S1133240991F820F931F081B190B005D0083FE0159
S1133250E40FF51F1282CE0101960E9432182B96BC
S11332600FB6F894DEBF0FBECDBFDF91CF911F9193
S11332700F910895CF92DF92EF92FF920F931F93D5
S1133280CF93DF93CDB7DEB72C970FB6F894DEBF9C
S11332900FBECDBF7C01992344F48DE28983F19460
S11332A0E194F10801E010E002C000E010E080E1E8
S11332B0E81687E2F806CCF06E01C00ED11EB70105
S11332C00F2C000C880B990B20EA36E841E050E003
S11332D00E94C72720E137E240E050E00E94C72760
S11332E0205DF60121830F5F1F4FF8EEEF16F3E028
S11332F0FF0684F0FE01E00FF11FC70160E177E2F1
S11333000E94912768EE73E00E949127605D6183BB
S11333100F5F1F4F84E6E816F10484F0FE01E00F0E
S1133320F11FC70168EE73E00E94912764E670E024
S11333300E949127605D61830F5F1F4FEAE0EE16E4
S1133340F10484F0FE01E00FF11FC70164E670E0B0
S11333500E9491276AE070E00E949127605D61837A
S11333600F5F1F4FE1E0F0E0EC0FFD1FE00FF11FD6
S1133370C7016AE070E00E949127805D8083FE01AE
S1133380E00FF11F1282CE0101960E9432182C9692
S11333900FB6F894DEBF0FBECDBFDF91CF911F9162
S11333A00F91FF90EF90DF90CF900895CF93DF932C
S11333B06AE070E00E949127EC01CB010E943A1967
S11333C08EE20E94A217CE010E943A19DF91CF919A
S11333D00895EF92FF920F931F93CF93DF93CDB78E
S11333E0DEB727970FB6F894DEBF0FBECDBF87E0D8
S11333F0E3E0F1E0DE01119601900D928A95E1F788
S11334008FEF9CE70197F1F700C00000209A219A02
S1133410269A279A559A579A5D9A5F985D988E01D5
S11334200F5F1F4F7E0198E0E90EF11CF8018191B6
S11334308F010E9470178FEF9CE70197F1F700C08E
S113344000000E151F0591F727960FB6F894DEBFFE
S11334500FBECDBFDF91CF911F910F91FF90EF90E1
S113346008958F92AF92CF92EF920F93812CA12C5B
S1133470C12C0F2EFFE1EF2EF02D0FE12FE14FE1D4
S11334806FE180E00E94D4170F2EFFE1CF2EF02DC4
S11334902FE140E060E081E00E94D4170F2EFFE1AD
S11334A08F2EF02D0F2EFFE1AF2EF02D20E040E007
S11334B060E082E00E94D4172FE140E060E083E006
S11334C00E94D417812CA12C2FE14FE16FE184E0FD
S11334D00E94D4170F2EFEE08F2EF02D0F2EFEE04B
S11334E0AF2EF02D0F2EFEE0CF2EF02D0F2EFEE08E
S11334F0EF2EF02D00E020E040E060E085E00E9447
S1133500D4170F91EF90CF90AF908F9008959F9222
S1133510AF92BF92CF92DF92EF92FF920F931F93DD
S1133520CF93DF93C62EC42F813061F08230F1F047
S1133530833069F112E00FEFFF24FA94E12CDD24CB
S1133540DA940BC010E200E26894FF24F5F8689462
S1133550EE24E5F86894DD24D5F8843031F1DFEF0A
S1133560BB24BA946894AA24A5F80EC0D2E012E051
S11335700FEF6894BB24B2F8AA24A3940F2EF3E0AF
S1133580FF2EF02DE12CD12C853019F10BC0DFEF8B
S113359012E002E0BB24BA94AA24A394FF24F39477
S11335A0E12CD12C863041F10FC0DFEF10E200E2B4
S11335B0BB24BA94AA24A3946894FF24F2F86894D0
S11335C0EE24E5F8DD24DA948730B9F199249A944D
S11335D010C0DFEF12E002E00F2EF3E0BF2EF02D5B
S11335E0AA24A3946894FF24F2F8912CE12CDD24FE
S11335F0DA94883091F10FC0DFEF12E00FEF0F2E55
S1133600F3E0BF2EF02DAA24A394FF24FA94912C66
S1133610E12CDD24DA94893071F5DFEF12E002E069
S1133620BB24BA94AA24A3946894FF24F2F899249E
S11336309A94E12CDD24DA941EC0DFEF10E200E25C
S1133640BB24BA946894AA24A5F86894FF24F5F8D6
S113365099249A94E12CD12C0EC0DFEF12E00FEFE5
S1133660BB24BA94AA24A394FF24FA9499249A9488
S1133670E12CDD24DA946C2F8C2D0E9410188D2DF2
S11336800E94A2178E2D0E94A217892D0E94A217B4
S113369061E06C0F8C2D0E9410188F2D0E94A217D0
S11336A08A2D0E94A2178B2D0E94A21762E06C0F34
S11336B08C2D0E941018802F0E94A217812F0E9427
S11336C0A2178D2F0E94A217DF91CF911F910F9106
S11336D0FF90EF90DF90CF90BF90AF909F900895B0
S11336E00F931F93CF93DF938C01C62FD42F8B3569
S11336F0910568F19C013695279536952795369561
S11337002795A5ECB0E20E94EC27929582958F70E4
S113371089279F70892748EE53E0849F9001859FF5
S1133720300D949F300D1124C801821B930B9C0112
S11337303695279536952795ABE7B4E10E94EC279B
S1133740969587954D2F6C2F0E94871A03C080E0B1
S11337500E94871A0A30110528F198013695279599
S113376036952795ABE7B4E10E94EC2796958795AB
S113377044E6489F9001499F300D1124C801821BE3
S1133780930B9C01ADECBCEC0E94EC2796958795BD
S113379096958795969587954D2F64E06C0F0E94BA
S11337A0871A06C04D2F64E06C0F80E00E94871AD0
S11337B062E06D0F87E08C0F0E94101885E00E9474
S11337C0A217C85F9801ADECBCEC0E94EC2796955B
S11337D0879596958795969587959C01220F331F1B
S11337E0880F991F880F991F880F991F820F931FA5
S11337F04D2F6C2F202F281B822F0E94871ADF91B8
S1133800CF911F910F91089581EC8093B300109292
S1133810B20083E08093B100E0E7F0E08081826051
S113382080830895F894109202011092010190E0AF
S113383090931202809311020E94041C78940895BC
S1133840AC0128E030E080E090E0BC0164277527FB
S113385060FF07C09695879561E0862760EA962702
S113386002C096958795569547952150310969F779
S11338700895CF93DF93C92FDD27862799270E94C8
S1133880201C8C279D27DF91CF9108950F931F93C0
S1133890CF93DF936115710569F08C01EC01060F7C
S11338A0171F8FEF9FEF69910E94391CC017D10732
S11338B0D1F702C08FEF9FEFDF91CF911F910F914E
S11338C008952A98E6E4F2E086E090E09383828308
S11338D082E0818310821092600410925F0410923F
S11338E06204109261040895813051F487E090E0FD
S11338F0909349028093480281E080934A0408959A
S1133900833051F487E090E0909349028093480219
S113391083E080934A040895853051F487E090E071
S1133920909349028093480285E080934A04089565
S1133930863051F487E090E09093490280934802E6
S113394086E080934A0408958F3021F5E6E4F2E09E
S1133950828590E0982F88272385822B9C013695B9
S11339602795369527953695279587709927892B1E
S113397039F4285F3F4F309349022093480206C030
S1133980275F3F4F30934902209348028FE0809392
S11339904A040895803189F4E6E4F2E0828590E0F7
S11339A0982F88272385822B0496880F991F938349
S11339B0828380E180934A040895E6E4F2E083E0A0
S11339C080838FEF90E0938382830895CF93DF9376
S11339D0C6E4D2E0998190934B03806880934C03B2
S11339E060934D0363E070E08BE493E00E94461C17
S11339F080934E0390934F0385E090E09D838C83E6
S1133A0084E0888384E60E94121CDF91CF9108959C
S1133A10EF92FF920F931F93CF93DF93009148028D
S1133A2010914902E8012197BE018CE492E00E94C2
S1133A30461CAC015527CA5BDD4F2E8130E042178E
S1133A40530709F041C2892F9927F801EA5BFD4F1A
S1133A50268130E08217930709F036C280914A0428
S1133A60813009F075C0A6E4B2E01896EC9118977D
S1133A70F0E0FE2FEE2719968C911997E82B1A96F1
S1133A808C911A9790E0982F88271B962C91822B63
S1133A90AF01480F591F4B30510508F055C0209114
S1133AA0470220934B0321E020934C0310924E03D2
S1133AB0892B11F1EB5AFB4F4B5A5B4F81E090E09D
S1133AC0C3E0D0E02191222331F0DE01A55BBC4F9D
S1133AD02C91282B2C93880F991F811521E0920794
S1133AE039F42196DE01A55BBC4F1C9281E090E085
S1133AF0E417F50739F702C0C3E0D0E08E010F5F89
S1133B001F4F0F2EF6E4EF2EF2E0FF2EF02D8DEF77
S1133B10800F80934D03B8018BE493E00E94461C10
S1133B20F801E55BFC4F8083FE01E35BFC4F90836F
S1133B30CE0103969927F7019583848384E08083DB
S1133B4084E60E94121C04C062E081E00E94E61C2C
S1133B5080914A04833009F069C0A6E4B2E0189663
S1133B60EC911897F0E0FE2FEE2719968C91199797
S1133B70E82B1A966C911A9770E0762F66271B969D
S1133B808C91682B9B01CF01860F971F0197059796
S1133B9008F048C08091470280934B0383E08093F0
S1133BA04C03862F880F80934D03232BE1F0EE0FF7
S1133BB0FF1FE55BFB4FAEE4B3E0EB01CC57DF4FF7
S1133BC0CC0FDD1F9E012A5B3D4F8081918132968F
S1133BD09C9311968C9311971296A217B307A9F789
S1133BE0C550D14002C0C3E0D0E0660F771F6D5FBF
S1133BF07F4F8BE493E00E94461CE6E4F2E09E01D2
S1133C002A5B3D4FD901AB5FBE4F8C9311969C93B9
S1133C102296DD27D583C48384E0808384E60E94D2
S1133C20121C04C062E083E00E94E61C80914A04F6
S1133C30853009F041C0E6E4F2E030852185822F29
S1133C4090E0932B8A30910598F5409150024F3FB4
S1133C5031F4FC01EB5AFB4F51E0508304C0FC01EA
S1133C60EB5AFB4F1082C6E4D2E0898180934B0368
S1133C7085E080934C0330934D0320934E0340938F
S1133C804F038B858093500366E070E08BE493E0F0
S1133C900E94461C809351039093520388E090E065
S1133CA09D838C8384E0888384E60E94121C04C074
S1133CB062E085E00E94E61C80914A048630E9F5C2
S1133CC0E6E4F2E030852185822F90E0932B853065
S1133CD0910578F5EF0152854385880F991FFC0102
S1133CE0E55BFB4F842F90E0952B91838083898142
S1133CF080934B0386E080934C0330934D032093D1
S1133D004E0350934F034093500366E070E08BE4FE
S1133D1093E00E94461C809351039093520388E0E1
S1133D2090E09D838C8384E0888384E60E94121C47
S1133D3004C062E086E00E94E61C80914A048F3051
S1133D4009F06AC0A6E4B2E018965C911897199637
S1133D504C911997E42FF0E0F52B1A963C911A97A1
S1133D601B962C91822F90E0932BBF01680F791F33
S1133D70DB0111971A9708F04BC0A0914702A0935A
S1133D804B03AFE0A0934C0350934D0340934E0379
S1133D9030934F0320935003892B21F1EB5AFB4FAF
S1133DA06B5A7B4F21E030E047E050E0C1E0DA019C
S1133DB0AA5BBD4F16968C9190E082239323892BA6
S1133DC011F0C08301C01082220F331F211581E03E
S1133DD0380721F44F5F5F4F21E030E031966E17D2
S1133DE07F0729F766E070E08BE493E00E94461CAD
S1133DF0E6E4F2E0809351039093520388E090E06C
S1133E009583848384E0808384E60E94121C04C02A
S1133E1062E08FE00E94E61C80914A04803109F040
S1133E2055C0E6E4F2E070856185A62FB0E0B72BBB
S1133E3052854385242F30E0352BCD01820F931F0B
S1133E4001970597E0F58091470280934B0380E149
S1133E5080934C0370934D0360934E0350934F0330
S1133E604093500321153105A1F0AA0FBB1FA55B98
S1133E70BB4F220F331F2A5B3D4F858590E0982F5F
S1133E8088274685842B8D939D933296E217F307FA
S1133E90A1F766E070E08BE493E00E94461CE6E440
S1133EA0F2E0809351039093520388E090E095836D
S1133EB0848384E0808384E60E94121C07C062E04D
S1133EC080E10E94E61C02C00E94611CDF91CF9138
S1133ED01F910F91FF90EF9008951F920F920FB6CC
S1133EE00F9211242F933F934F935F936F937F937C
S1133EF08F939F93AF93BF93EF93FF93F894809125
S1133F00C600E0915F04F0916004EA5BFD4F868394
S1133F101092B2008091460281112CC080915F04FE
S1133F2090916004892B39F481E00E94121C8091E5
S1133F30460281111FC080915F049091600406972E
S1133F4069F5E6E4F2E096818181981306C081E088
S1133F50808387810E94741C0DC0E6E4F2E083E054
S1133F6080838FEF90E09383828380915F049091AC
S1133F7060041BC080914602813081F420915F046B
S1133F8030916004809148029091490228173907C2
S1133F9029F41092B10082E08093460280915F047C
S1133FA0909160048F3F910528F4019690936004EA
S1133FB080935F047894FF91EF91BF91AF919F91AB
S1133FC08F917F916F915F914F913F912F910F90BE
S1133FD00FBE0F901F9018951F920F920FB60F925D
S1133FE011242F933F934F935F936F937F938F93FA
S1133FF09F93AF93BF93EF93FF93F894E1ECF0E0BA
S113400080818F7B80830E94611C7894FF91EF9163
S1134010BF91AF919F918F917F916F915F914F91DC
S11340203F912F910F900FBE0F901F9018951F92E4
S11340300F920FB60F9211242F933F938F939F9358
S1134040EF93FF93F894809161049091620420911E
S11340504A0230914B02215031098217930779F4B7
S1134060FC01E55BFC4F80818093C600E1ECF0E04D
S113407080818F7D80838081806480830DC0FC017A
S1134080E55BFC4F80818093C600E1E6F4E080812B
S113409091810196918380837894FF91EF919F9110
S11340A08F913F912F910F900FBE0F901F901895F5
S11340B01F920F920FB60F9211242F933F934F9399
S11340C05F936F937F938F939F93AF93BF93EF937C
S11340D0FF93F89420910101309102018091110223
S11340E0909112022817390730F42F5F3F4F309315
S11340F002012093010120910101309102018217F4
S1134100930759F5019690930201809301018091E0
S113411046028430C1F42A9A85E0809346021092C4
S1134120B100E1E6F4E080819181DC01A55BBC4F44
S11341302C912093C600A1ECB0E02C9120622C932A
S113414001969183808380914602823010F08330FF
S113415021F40E94611C1092B1007894FF91EF91B8
S1134160BF91AF919F918F917F916F915F914F918B
S11341703F912F910F900FBE0F901F901895E1EC77
S1134180F0E088E180838EE08093C20089E180932F
S1134190C4001092C500808180688083229A2A9886
S11341A008951F920F920FB60F9211242F933F93ED
S11341B04F935F936F937F938F939F93AF93BF932B
S11341C0EF93FF93F89488EF86BD80916D049091EE
S11341D06E04019690936E0480936D04809175042F
S11341E09091760401968636910528F4909376048E
S11341F08093750406C010927604109275040E9490
S1134200CE047894FF91EF91BF91AF919F918F91DC
S11342107F916F915F914F913F912F910F900FBEBE
S11342200F901F9018954C990CC02FE78AE196E0E7
S1134230215080409040E1F700C0000081E090E010
S113424008954B990CC02FE78AE196E021508040F5
S11342509040E1F700C0000082E090E0089580E023
S113426090E00895AC018436910560F19C01369587
S113427027953695279536952795A5ECB0E20E94AB
S1134280EC27929582958F7089279F70892768EE15
S113429073E0869F9001879F300D969F300D112407
S11342A0CA01821B930B9C01369527953695279559
S11342B0ABE7B4E10E94EC2796958795805D8093E7
S11342C06F0403C080E380936F044A30510518F1F2
S11342D09A013695279536952795ABE7B4E10E9468
S11342E0EC279695879564E6689F9001699F300D49
S11342F01124CA01821B930B9C01ADECBCEC0E94FF
S1134300EC27969587959695879596958795805DE4
S11343108093700403C080E380937004EFE6F4E0BC
S11343208CE282839A01ADECBCEC0E94EC2796955A
S1134330879596958795969587959C01220F331FAF
S1134340880F991F880F991F880F991F820F931F39
S1134350481B590B405D438389E08483158208958B
S113436060E089E00E94101880914102813029F4B4
S113437089E191E00E94321804C08EE191E00E942C
S1134380321883E694E00E945E27A3E6B4E0129616
S11343908C911297E6E1F2E0982F92959F70905DD0
S11343A090838F70805D818311968C911197982FE3
S11343B092959F70905D93838F70805D84838C91C0
S11343C0982F92959F70905D96838F70805D878300
S11343D060E080E00E94101886E192E00E943218AA
S11343E060E08EE00E94101883E291E00E9432188F
S11343F080914402909145020E94D61980E20E9465
S1134400A21761E08EE00E94101886E291E00E94FB
S1134410321880914202909143020E94D61980E2A0
S11344200E94A21762E08EE00E94101889E291E0D7
S11344300E94321880911402909115020E94D6199C
S113444080E20E94A21741E060E080916A049091AA
S11344506B040E94701B63E08BE00E9410188CE2D6
S113446091E00E943218089560E089E00E941018DB
S113447080914102813029F489E191E00E9432184F
S113448004C08EE191E00E94321883E694E00E9419
S11344905E27A3E6B4E012968C911297E6E1F2E06F
S11344A0982F92959F70905D90838F70805D81832B
S11344B011968C911197982F92959F70905D93838C
S11344C08F70805D84838C91982F92959F70905DFE
S11344D096838F70805D878360E080E00E9410186F
S11344E086E192E00E94321860E08EE00E9410188B
S11344F083E291E00E943218809144029091450237
S11345000E94D61980E20E94A21761E08EE00E9408
S1134510101886E391E00E94321880916A04909109
S11345206B040E94D61980E20E94A21762E08EE01A
S11345300E94101889E291E00E94321880911402BE
S1134540909115020E94D61980E20E94A21741E0C0
S113455060E080914202909143020E94701B63E0EC
S11345608DE00E94101889E391E00E9432180E94A5
S11345701321029769F4109213020E940C182FE77A
S113458088E391E0215080409040E1F700C00000B2
S1134590089583E694E00E945E27A3E6B4E01296B1
S11345A08C911297E6E1F2E0982F92959F70905DBE
S11345B090838F70805D818311968C911197982FD1
S11345C092959F70905D93838F70805D84838C91AE
S11345D0982F92959F70905D96838F70805D8783EE
S11345E060E086E00E94101886E192E00E94321892
S11345F061E080E00E94101881E491E00E9432188A
S113460080914202909143020E94D61980E20E9456
S1134610A21762E080E00E9410188091410281306C
S113462029F486E491E00E94321804C08CE491E0FD
S11346300E94321863E080E00E94101884E591E043
S11346400E94321880914402909145020E94D6192A
S113465080E20E94A21761E08AE00E9410188AE5B5
S113466091E00E94321880916A0490916B040E9438
S1134670D61980E20E94A21762E08AE00E94101814
S113468080E691E00E943218809114029091150204
S11346900E94D61980E20E94A21763E08AE00E9479
S11346A0101886E691E00E94321880911F029091C2
S11346B020020E94D61980E20E94A21763E083E1DF
S11346C00E9410188BE691E00E94321860E081E1AC
S11346D00E94101880916A0490916B040E944C18F7
S11346E00E941321029769F4109213020E940C187D
S11346F02FE788E391E0215080409040E1F700C02B
S113470000000895CF93DF9300D01F92CDB7DEB79A
S113471060E080E00E9410188DE691E00E9432185B
S113472083E694E00E945E2780916504982F929519
S11347309F70905D99838F70805D8A831B8261E096
S113474089E00E941018CE0101960E9432180E943E
S113475013210297F9F420916504822F90E08332AB
S1134760910584F4322F3F70432F50E049305105B6
S113477014F4019609C0393039F4207F822F90E077
S1134780409602C080E090E08093650483E694E064
S11347900E94392763E083E10E94101882E891E0C7
S11347A00E9432180F900F900F90DF91CF910895CF
S11347B0CF93DF9300D01F92CDB7DEB760E080E0E7
S11347C00E94101884E891E00E94321883E694E075
S11347D00E945E2780916404982F92959F70905D4B
S11347E099838F70805D8A831B8261E089E00E94D7
S11347F01018CE0101960E9432180E9413210297CC
S1134800F9F420916404822F90E08935910584F4B1
S1134810322F3F70432F50E04930510514F4019674
S113482009C0393039F4207F822F90E0409602C0CD
S113483080E090E08093640483E694E00E9439274A
S113484063E083E10E94101889E991E00E94321824
S11348500F900F900F90DF91CF910895CF93DF9336
S113486000D01F92CDB7DEB760E080E00E94101840
S11348708BE991E00E94321883E694E00E945E275F
S113488080916304982F92959F70905D99838F70A7
S1134890805D8A831B8261E089E00E941018CE014A
S11348A001960E9432180E9413210297F9F4209174
S11348B06304822F90E08935910584F4322F3F7090
S11348C0432F50E04930510514F4019609C03930A2
S11348D039F4207F822F90E0409602C080E090E07F
S11348E08093630483E694E00E94392763E083E1C4
S11348F00E94101880EB91E00E9432180F900F90E4
S11349000F90DF91CF910895CF93DF9300D0CDB76F
S1134910DEB71A82198268E774E080E00E94F5111C
S1134920882399F061E080E00E94101810924102FF
S113493082EB91E00E9432182FEF89E698E1215032
S113494080409040E1F700C0000080E00E948301B5
S1134950809377048823E1F062E080E00E941018DD
S11349601092410288EB91E00E9432188091770402
S113497090E00E943A198EEB91E00E9432182FEFDA
S113498089E698E1215080409040E1F700C00000A2
S113499042E06DEF71E081E292E00E940B1280939D
S11349A06C04882349F182E30E94A2172FEF80E769
S11349B092E0215080409040E1F700C0000063E0A5
S11349C080E00E9410181092410281EC91E00E9454
S11349D0321880916C0490E00E943A198EEB91E0B9
S11349E00E9432182FEF89E698E1215080409040D0
S11349F0E1F700C0000058C040912B0250912C02F6
S1134A0060912D0270912E0281E292E00E94621563
S1134A1083E694E00E945E27A3E6B4E012968C91AC
S1134A201297E6E1F2E0982F92959F70905D908343
S1134A308F70805D818311968C911197982F929538
S1134A409F70905D93838F70805D84838C91982F89
S1134A5092959F70905D96838F70805D87839E0191
S1134A602F5F3F4F4DE150E067EC71E081E292E04F
S1134A700E9461139E012F5F3F4F48E050E066E1C2
S1134A8072E081E292E00E9461139E012F5F3F4F2A
S1134A9041E050E065EE71E081E292E00E94611332
S1134AA081E292E00E9456150F900F90DF91CF9112
S1134AB0089580911302823091F028F4882349F0FC
S1134AC0813051F018C0843081F060F0853081F07D
S1134AD012C00E94B02111C00E9434220EC00E9454
S1134AE0C9220BC00E94822308C00E94D82305C09B
S1134AF00E942E2402C00E94B0210E94132101971B
S1134B00A9F480911302853020F48F5F80931302FF
S1134B1002C0109213020E940C182FE788E391E060
S1134B20215080409040E1F700C000000895CF93E9
S1134B30DF9300D0CDB7DEB781E0809341021A82C3
S1134B401982569A8BB188618BB93B9A439A519AD0
S1134B50589AE6E1F2E08AE38283858310860E9414
S1134B60E9190E94311A0E94BF200E94611C60E072
S1134B7080E00E94101887EE91E00E94321861E0F4
S1134B8080E00E9410188AEF91E00E94321810927F
S1134B906E0410926D04109276041092750485E0F0
S1134BA085BD88EF86BDEEE6F0E08081816080837C
S1134BB0789409E010E081E00E94A2172FEF80E7CB
S1134BC092E0215080409040E1F700C00000015085
S1134BD0110989F70E9429270E94842461E089E051
S1134BE00E94101809E010E081E00E94A217AFEFC4
S1134BF0B0E7E2E0A150B040E040E1F700C00000BF
S1134C000150110989F78DE50E94A2170E940C1822
S1134C100F2EF6E48F2EF2E09F2EF02D0F2EF6E1EC
S1134C206F2EF2E07F2EF02D0F2EFDE4AF2EF4E078
S1134C30BF2EF02D0F2EF1E5CF2EF4E0DF2EF02D58
S1134C400F2EFBE4EF2EF4E0FF2EF02D0FE414E022
S1134C50D4018C91823011F40E94081D0E945925C0
S1134C6080916D0490916E04893E934008F4C0C015
S1134C7080914102813009F0BBC010926E04109201
S1134C806D0442E06CEF71E081E292E00E940B124D
S1134C9040912B0250912C0260912D0270912E02B2
S1134CA081E292E00E94621583E694E00E945E270E
S1134CB0E3E6F4E08281982F92959F70905DD30192
S1134CC09C938F70805D11968C9311978181982F9E
S1134CD092959F70905D13969C9313978F70805D4F
S1134CE014968C9314978081982F92959F70905D61
S1134CF016969C9316978F70805D17968C939E01E1
S1134D002F5F3F4F48E050E0B30181E292E00E9400
S1134D10611380911F02909120020E9432219E0112
S1134D202F5F3F4F41E050E067E072E081E292E0A4
S1134D300E9461139E012F5F3F4F45E050E06FE6F4
S1134D4074E081E292E00E946113809114029091D8
S1134D5015020E9432219E012F5F3F4F45E050E033
S1134D606FE674E081E292E00E94611380916A042C
S1134D7090916B040E9432219E012F5F3F4F45E0CA
S1134D8050E06FE674E081E292E00E94611380914A
S1134D904402909145020E9432219E012F5F3F4FB1
S1134DA045E050E06FE674E081E292E00E94611316
S1134DB080914202909143020E9432219E012F5F12
S1134DC03F4F45E050E06FE674E081E292E00E94DC
S1134DD061139E012F5F3F4F41E050E065EE71E0AB
S1134DE081E292E00E94611381E292E00E945615F2
S1134DF0F50120813181ADECBCEC0E94EC27969545
S1134E0087959695879596958795909315028093A7
S1134E101402D6018D919C9190936B0480936A0443
S1134E20F701208131813695279536952795ABE793
S1134E30B4E10E94EC279695879590934502809360
S1134E404402D8018D919C91909343028093420235
S1134E50FFCE0E943A170E94431780ED0E94561716
S1134E6087E00E94561780E00E9456170E944C1754
S1134E700895CF93DF93EC010E94431780ED0E94C5
S1134E80561780E00E94561788810E945617898120
S1134E900E9456178A810E9456178B810E945617CA
S1134EA08C810E9456178D810E9456178E810E9414
S1134EB056170E944C17DF91CF910895CF93DF933B
S1134EC0EC010E94431780ED0E94561780E00E9477
S1134ED056170E944C170E94431781ED0E945617E3
S1134EE081E00E946117888381E00E9461178983B1
S1134EF081E00E9461178A8381E00E9461178B839D
S1134F0081E00E9461178C8381E00E9461178D8388
S1134F1080E00E9461178E830E944C17DF91CF912D
S1134F20089597FB072E16F4009407D077FD09D057
S1134F300E94062807FC05D03EF4909581959F4F6A
S1134F400895709561957F4F0895A1E21A2EAA1BCA
S1134F50BB1BFD010DC0AA1FBB1FEE1FFF1FA21725
S1134F60B307E407F50720F0A21BB30BE40BF50B22
S1134F70661F771F881F991F1A9469F760957095AB
S1134F80809590959B01AC01BD01CF010895052E3C
S1134F9097FB1EF400940E94DE2757FD07D00E9461
S1134FA0A52707FC03D04EF40C94DE2750954095BA
S1134FB0309521953F4F4F4F5F4F089590958095C1
S1134FC0709561957F4F8F4F9F4F0895EE0FFF1F90
S1134FD00590F491E02D0994A29FB001B39FC00104
S1134FE0A39F700D811D1124911DB29F700D811D11
S1134FF01124911D08950E94EC27A59F900DB49F44
S1135000900DA49F800D911D11240895AA1BBB1B14
S113501051E107C0AA1FBB1FA617B70710F0A61BB4
S1135020B70B881F991F5A95A9F780959095BC01D5
S10B5030CD010895F894FFCFAF
S11350380101003332280C010680222A2B2C3A3B2A
S11350483C3D3E3F5B5D7C7F0053444F6B005344C3
S1135058455200453D00563D00543D004120202066
S1135068202020203100493D004B6D2F682020323C
S11350780056656C3D005344204F6B005344204553
S113508872726F00456261743D00496261743D004B
S1135098546261743D005476653D0033002020203D
S11350A8416A7573746520646120686F7261202099
S11350B82000340020416A7573746520646F73207E
S11350C86D696E75746F7320003500416A75737469
S11350D86520646F7320736567756E646F73200051
S11350E83600453A20312000453A20323E003C2023
S11350F800453A20333E00496E696369616E646F06
S1135108206E6F76612074656C656D657472696173
S113511820617320000A002020496E696369616C6C
S1135128697A616E646F2E2E2E005B002F646164B1
S10D51386F732E74787400090000F0
S9030000FC
