S00B000049484D2E737265633B
S11300000C9434000C9426020C943D020C94510080
S11300100C9451000C9451000C9451000C94510018
S11300200C9451000C9451000C9451000C94510008
S11300300C9451000C9451000C9451000C945100F8
S11300400C9451000C9451000C9451000C945100E8
S11300500C9451000C9451000C9451000C945100D8
S11300600C9451000C94510011241FBECFEFD8E022
S1130070DEBFCDBF11E0A0E0B1E0EAE5F6E002C0EA
S113008005900D92A032B107D9F721E0A0E2B1E0CA
S113009001C01D92A232B207E1F70E9454020C94EF
S11300A02B030C940000611571058105910559F02D
S11300B0615071098109910924B124B9611571054F
S11300C081059105A9F70895CF93C82F67E370E0E0
S11300D080E090E00E9453002898C4FF02C02A9A4E
S11300E001C02A98C5FF02C02B9A01C02B98C6FFF5
S11300F002C02C9A01C02C98CC2314F42D9A01C070
S11301002D98299A2998C0FF02C02A9A01C02A98DA
S1130110C1FF02C02B9A01C02B98C2FF02C02C9AC7
S113012001C02C98C3FF02C02D9A01C02D98299AB2
S11301302998CF910895CF93C82F67E370E080E0AA
S113014090E00E945300289AC4FF02C02A9A01C07A
S11301502A98C5FF02C02B9A01C02B98C6FF02C083
S11301602C9A01C02C98CC2314F42D9A01C02D98FC
S1130170299A2998C0FF02C02A9A01C02A98C1FF6F
S113018002C02B9A01C02B98C2FF02C02C9A01C056
S11301902C98C3FF02C02D9A01C02D98299A299842
S11301A0CF91089581E00E94640008950F931F93F6
S11301B0CF93DF93FC018081882369F08F01EF01E5
S11301C0219607511C4F0E949B008991882319F0A6
S11301D0C017D107C1F7DF91CF911F910F910895F7
S11301E00F931F93CF93DF93CDB7DEB72B970FB643
S11301F0F894DEBF0FBECDBF8C01003187E2180733
S1130200A0F0B80180E090E020EA36E841E050E058
S11302100E94DB0220E137E240E050E00E94DB0272
S1130220205D298341E050E002C040E050E0083EF8
S113023093E01907A8F1FE01E40FF51F9801329528
S113024022952F7023273F702327A7E4B3E00E9451
S1130250FA0296958795969587959695879560E188
S113026077E2869F9001879F300D969F300D112471
S1130270C801821B930B9C013695279536952795CB
S113028036952795A5ECB0E20E94FA0292958295E4
S11302908F7089279F708927805D81834F5F5F4FAF
S11302A00436110578F1FE01E40FF51F9801369527
S11302B027953695279536952795A5ECB0E20E94AB
S11302C0FA02929582958F7089279F70892768EE2C
S11302D073E0869F9001879F300D969F300D112407
S11302E0C801821B930B9C0136952795369527955B
S11302F0ABE7B4E10E94FA0296958795805D81830D
S11303004F5F5F4F0A30110530F1FE01E40FF51F16
S113031098013695279536952795ABE7B4E10E9469
S1130320FA029695879564E6689F9001699F300D5F
S11303301124C801821B930B9C01ADECBCEC0E9400
S1130340FA02969587959695879596958795805DFB
S113035081834F5F5F4FE1E0F0E0EC0FFD1FE40F9E
S1130360F51F9801ADECBCEC0E94FA0296958795B6
S113037096958795969587959C01220F331F880F34
S1130380991F880F991F880F991F820F931F081BAD
S1130390190B005D0083FE01E40FF51F1282CE01EC
S11303A001960E94D6002B960FB6F894DEBF0FBEBE
S11303B0CDBFDF91CF911F910F910895EF92FF92DE
S11303C00F931F93CF93DF93CDB7DEB727970FB665
S11303D0F894DEBF0FBECDBF87E0E0E0F1E0DE01C0
S11303E0119601900D928A95E1F768EC70E080E037
S11303F090E00E945300229A239A249A259A219AE3
S1130400209A299A289829988E010F5F1F4F7E0100
S113041088E0E80EF11CF80181918F010E946400CC
S113042064EF71E080E090E00E9453000E151F0518
S113043091F727960FB6F894DEBF0FBECDBFDF91BC
S1130440CF911F910F91FF90EF9008951F920F92FB
S11304500FB60F9211248F939F9380912001909156
S11304602101019690932101809320019F918F9106
S11304700F900FBE0F901F9018951F920F920FB6FA
S11304800F9211248F939F938091200190912101C9
S1130490019790932101809320019F918F910F9058
S11304A00FBE0F901F9018958AE090E09093210161
S11304B0809320010E94DE0180E40E9464008AE4AB
S11304C00E949B0080E90E949B0081E00E949B00A7
S11304D080E90E949B0081E00E949B0080E90E94C9
S11304E09B008AEA0E949B008FEF0E949B0085E09C
S11304F08093690083E08DBB789482E80E94640055
S113050087E091E00E94D600809120019091210122
S11305100E94F00083E191E00E94D60082EC0E94E8
S113052064008AE191E00E94D60080E090E00E949D
S1130530F00083E191E00E94D600C1E0D0E011C058
S11305400E94D20068EE7DEF80E090E00E945300AC
S113055080E00E949B0068EE7DEF80E090E00E94C6
S1130560530067EC70E080E090E00E94530082E862
S11305700E94640087E091E00E94D60080912001EF
S1130580909121010E94F00083E191E00E94D60045
S113059082EC0E9464008AE191E00E94D600CE01C0
S11305A00E94F00083E191E00E94D6002196C436B7
S11305B0D105B9F6C5CF052E97FB1EF400940E9411
S11305C0F20257FD07D00E94090307FC03D04EF442
S11305D00C94F20250954095309521953F4F4F4F22
S11305E05F4F089590958095709561957F4F8F4FDB
S11305F09F4F0895A29FB001B39FC001A39F700DA8
S1130600811D1124911DB29F700D811D1124911D16
S11306100895A1E21A2EAA1BBB1BFD010DC0AA1F3F
S1130620BB1FEE1FFF1FA217B307E407F50720F057
S1130630A21BB30BE40BF50B661F771F881F991FD2
S11306401A9469F760957095809590959B01AC011B
S10D0650BD01CF010895F894FFCF17
S113065A3332280C010680436F6E7461646F722012
S113066A3D20002020202020200079203D20000069
S9030000FC
